:020000040800F2
:10000000000002208DCE0008BDCE00086DCE000895
:1000100085CE0008C3CE00087FCE00080000000097
:1000200000000000000000000000000079CE000881
:10003000C9CE00080000000073CE0008D568000893
:10004000D1CE0008D3CE0008D5CE0008D7CE000808
:10005000D9CE0008DBCE0008DDCE0008DFCE0008D8
:10006000E1CE0008E3CE0008E5CE0008E7CE0008A8
:10007000E9CE0008EBCE0008EDCE0008EFCE000878
:10008000F1CE0008F3CE0008F5CE0008F7CE000848
:10009000F9CE0008FBCE0008FDCE0008FFCE000818
:1000A00001CF000803CF000805CF000807CF0008E4
:1000B00009CF00080BCF00080DCF00080FCF0008B4
:1000C00011CF000813CF000815CF000817CF000884
:1000D00019CF00081BCF00081DCF00084DA2000853
:1000E00021CF000823CF000825CF000827CF000824
:1000F00029CF00082BCF00082DCF00082FCF0008F4
:1001000031CF000833CF000835CF000837CF0008C3
:1001100039CF00083BCF00083DCF00083FCF000893
:1001200041CF000843CF000845CF000847CF000863
:1001300049CF00084BCF00084DCF00084FCF000833
:1001400051CF000853CF000855CF000857CF000803
:1001500059CF00085BCF00085DCF00085FCF0008D3
:1001600061CF000863CF000865CF000867CF0008A3
:1001700069CF00086BCF00086DCF00086FCF000873
:1001800071CF000810B5054C237833B9044B13B177
:100190000448AFF300800123237010BD080900203C
:1001A000000000009860010808B5034B1BB103492B
:1001B0000348AFF3008008BD000000000C090020D8
:1001C00098600108002A01D002F5807A704700BFCC
:1001D000162031A1ABBE30484168002901D0364A13
:1001E00011600168002901D1324901608168C2684B
:1001F0002A4B002900D00B469D46FFF7E3FF002164
:100200008B460F462648274A121A0EF001F814F0C2
:1002100023FA15202649ABBE25490968002001B400
:100220000B780131002B15D0202BF9D0222B01D0D7
:10023000272B01D11A0001E02022013902B401303C
:100240000B780131002B05D09A42F9D100224B1EC8
:100250001A70E5E76946020092006A446B469A42CA
:1002600006D9043A14681D6815601C600433F6E76B
:100270006C460725AC43A54604000D000A4800283B
:1002800002D00A48AFF300800DF05EFE2000290086
:100290000CF05AFD0DF044FE00000020000002208A
:1002A0000809002098640020000000000000000001
:1002B0001001002098640020F408002080B485B06C
:1002C00000AF0346FB710023FB60FB79002B04D1D8
:1002D000FB79054A52F82330FB60FB681846143757
:1002E000BD4680BC704700BF1801002080B485B0B7
:1002F00000AF0346FB710023FB60FB79052B04D89C
:10030000FB79054A52F82330FB60FB681846143726
:10031000BD4680BC704700BF8453010880B586B0DD
:1003200000AFF860B9607A600023FB75FB68002BB2
:100330002ED0BB68002B2BD07B68002B28D07B688D
:1003400000221A6018E07B681A6813465B001344A9
:100350009B001A46FB6813441B68B96818460BF0EB
:10036000C7F80346012B02D10123FB7510E07B681F
:100370001B685A1C7B681A607B681A6813465B000E
:1003800013449B001A46FB6813441B68002BDAD108
:10039000FB7D18461837BD4680BD80B483B000AFE2
:1003A0007860012318460C37BD4680BC70470000BA
:1003B0002DE9F043A7B006AF7860012387F87F30BE
:1003C0007B685B79012B48D100233B677B681B79F5
:1003D0008249184603F04EF87B681B79804918461D
:1003E00003F048F87B681B7907F170021146184644
:1003F00002F068FA3B6F002B00F00C82002387F8B4
:100400007E301EE07B681B791C46396F97F87E2092
:1004100013465B0013449B000B441868396F97F830
:100420007E2013465B0013449B000B449B680246EE
:100430006C49204603F01EF897F87E30013387F8A8
:100440007E30396F97F87E2013465B0013449B0083
:100450000B441B68002BD5D1DCE17B685B79022B58
:1004600040F0D5817B689B6804331B685E49184661
:100470000BF03EF80346002B1FD07B681B79184613
:100480007B681B681A46594902F0F4FF7B681B79A8
:100490005349184602F0EEFF7B681B791846544B0F
:1004A000544A554902F0E6FF7B681B791846534BC6
:1004B000534A514902F0DEFFACE17B689B6804338C
:1004C0001B684C4918460BF013F80346002B59D013
:1004D0000023FB660023BB65434BFB657B681B79F0
:1004E00007F16C021146184602F0ECF9FB6E002B86
:1004F00000F09081002387F87D3037E0F96E97F89F
:100500007D2013465B0013449B000B441B681B7843
:10051000232B26D0F96E97F87D2013465B001344F9
:100520009B000B441B683B66012387F865307B68A2
:100530001B7987F8643007F15803BB66F96E97F8AA
:100540007D2013465B0013449B000B445B6807F15E
:100550006002104698477B681B792A49184602F0CA
:1005600089FF97F87D30013387F87D30F96E97F871
:100570007D2013465B0013449B000B441B68002B3B
:10058000BCD147E17B689B6804331B681C49184653
:100590000AF0AEFF0346002B40F03C817B689B686D
:1005A00004331B68184918460AF0A2FF0346002BC3
:1005B00000F02981154B07F108041D460FCD0FC42B
:1005C0000FCD0FC495E8030084E803000A2387F8E1
:1005D0007B30002387F87C300DE100BF984901088B
:1005E000A8490108C049010864480108D049010828
:1005F000E4490108F8490108004A0108104A0108C5
:10060000384A0108404A0108484A0108D84A010806
:10061000002387F87A30002387F87930002387F8A1
:100620007830002387F87730002387F8763000236E
:1006300087F87530002387F84330002387F842306D
:100640000023FB630023BB634FF000037B630023A5
:100650003B6397F87C309B0007F18002134453F80A
:10066000783C07F14302114618460BF00FF8034699
:1006700087F87A3097F87C309B0007F180021344AA
:1006800053F8783C07F14202114618460BF030F857
:10069000034687F8793097F87C309B0007F1800299
:1006A000134453F8783C07F13C02114618460BF00E
:1006B0004BF8034687F8783097F87C309B0007F1B9
:1006C0008002134453F8783C07F13802114618466B
:1006D0000BF091F8034687F8773097F87C309B0051
:1006E00007F18002134453F8783C07F134021146B5
:1006F00018460BF0C4F8034687F8763007F1440338
:100700001422002118460DF083FD97F87C309B00E1
:1007100007F18002134453F8781C07F144031322B5
:1007200018460EF07FFD07F1440318460EF04FFD0A
:10073000034699B207F1300307F1440027220BF07A
:10074000C3F8034687F875307B681B79184697F81D
:100750007C309B0007F18002134453F8783C1A4622
:10076000304902F087FE7B681B792F49184602F05A
:1007700081FE7B681B791E4697F8754097F87A5082
:1007800097F8793097F8782097F8771097F87600EF
:1007900003900291019200932B4622462349304652
:1007A00002F068FE7B681B7998463E6B97F84330F1
:1007B000994697F842303B60FC6BBD6B7B6B1846EB
:1007C0000CF0D6FD02460B46CDE9042302950194B8
:1007D0003B6800934B4632461549404602F04AFEBC
:1007E0007B681B791349184602F044FE97F87C3069
:1007F000013387F87C3097F87C2097F87B309A4259
:10080000FFF406AF06E0022387F87F3002E0022300
:1008100087F87F3097F87F3018468437BD46BDE8AB
:10082000F08300BF504A01085C4A0108844A01086D
:10083000AC4A0108D44A01082DE9F0438FB006AF55
:10084000F8600123FB77FB685B79012B0AD0FB681A
:100850009B6804331B687E4918460AF049FE03462C
:10086000012B27D1FB681B791846FB681B681A46C9
:10087000784902F0FFFDFB681B797749184602F0C2
:10088000F9FDFB681B791846744B754A754902F0EF
:10089000F1FDFB681B791846734B744A714902F0ED
:1008A000E9FDFB681B791846714B724A6D4902F0ED
:1008B000E1FDC7E0FB689B6804331B686849184684
:1008C0000AF016FE0346012B40F0A880FB685B7916
:1008D000022B40F0A08000237B7797E07B7F1846B7
:1008E00004F04CF903463B77FB681B7918467B7F85
:1008F00041331A46604902F0BDFDFB681B7918467A
:100900003B7F1A465D4902F0B5FDFB681B7918462E
:100910005B4B05935B4B04935B4B03935B4B0293E5
:100920005B4B01935B4B00935B4B5C4A5C4902F071
:10093000A1FD0023BB7763E007F11B02B97F7B7F3A
:10094000184604F07EF907F11A02B97F7B7F18463A
:1009500004F001FA07F11902B97F7B7F184604F011
:1009600084FA07F11602B97F7B7F184604F058FB22
:1009700007F11802B97F7B7F184604F0C3FA07F12C
:100980001702B97F7B7F184604F0ECFA07F11502D5
:10099000B97F7B7F184604F076FCFB681B7999468B
:1009A000BC7FFB7E184604F083F98046BB7E184668
:1009B00004F008FA05467B7E184604F08DFA0646D8
:1009C000BB7D184604F05EFBB8603B7E7B60FB7D20
:1009D0003B607B7D184604F0ABFC034605933A6808
:1009E00004927B680393BB6802930196009543468B
:1009F00022462C49484602F03DFDBB7F0133BB77C0
:100A0000BB7F0F2B98D97B7F01337B777B7F042BB8
:100A10007FF664AF16E00323FB7713E0FB689B6867
:100A200004331B68204918460AF062FD0346012B77
:100A300006D1FB685B79052B04D00323FB7701E02B
:100A40000223FB77FB7F18462437BD46BDE8F083C1
:100A500064480108D0490108A8490108004B010871
:100A6000104B0108004A0108184B01082C4B0108E3
:100A7000484B01085C4B0108784B0108844B010886
:100A8000D84B0108DC4B0108E04B0108E44B01089E
:100A9000EC4B0108F44B0108984B0108A04B0108EE
:100AA000A44B0108FC4B0108304C01082DE9F04F24
:100AB00095B00AAF7860012387F827307B685B79AF
:100AC000012B0AD07B689B6804331B688E4918464B
:100AD0000AF00EFD0346012B1FD17B681B791846D7
:100AE0007B681B681A46894902F0C4FC7B681B7945
:100AF0008749184602F0BEFC7B681B791846854B77
:100B0000854A864902F0B6FC7B681B791846844BFF
:100B1000844A824902F0AEFCEEE07B689B680433B5
:100B20001B687D4918460AF0E3FC0346012B40F0A0
:100B3000C1807B681B7918467B4B05937B4B0493E4
:100B40007B4B03937B4B02937B4B01937B4B00933B
:100B50007B4B7C4A7C4902F08DFC002387F82630D1
:100B6000A2E007F108030522002118460DF050FB12
:100B70000023BB774FF00003BB614FF000037B61A4
:100B80004FF000033B612D2387F825304FF6FF73AC
:100B90007B8407F11E0297F826301146184603F0B1
:100BA0009DFC07F11F0207F1200197F82630184637
:100BB00003F00EFEBB7F002B1BD007F1180297F845
:100BC00026300A21184603F0ADFCB86907F114037A
:100BD0005E4A4FF08B410AF0ACF997F82630002BB3
:100BE00007D1796907F1100297F82630184603F00B
:100BF0007FFD97F82630002B07D107F10803544AF0
:100C0000042118460EF0A2FA06E007F10803514A43
:100C1000042118460EF09AFA97F82030052B05D1DA
:100C20002D2387F8253000237B8406E097F82030B9
:100C3000413387F82530FB7F7B847B681B799A469C
:100C400097F82630184603F0A9FD0646BB7F9B4661
:100C5000BB6918460CF08CFB04460D467B691846B0
:100C60000CF086FB804689463B6918460CF080FBF9
:100C700002460B4697F82510B7F922000890079115
:100C800007F108010691CDE90423CDE90289CDE9F8
:100C900000455B4632463049504602F0EBFB97F880
:100CA0002630013387F8263097F82630042B7FF65C
:100CB00058AF21E07B689B6804331B6827491846BE
:100CC0000AF016FC0346012B13D1002387F82130CC
:100CD0000AE097F821300121184603F0C7FA97F887
:100CE0002130013387F8213097F82130042BF0D9D7
:100CF00002E0022387F8273097F8273018462C3770
:100D0000BD46BDE8F08F00BF64480108D049010826
:100D1000A8490108004B0108104B0108004A0108CE
:100D2000384C0108444C0108A04B0108984C0108BC
:100D3000A04C0108A84C0108B04C0108B84C0108AF
:100D40005C4C0108644C01086C4C010800404E45A5
:100D5000BC4C0108C44C0108CC4C0108084D0108EA
:100D60002DE9F04790B008AFF8600123FB77FB68EE
:100D70009B6804331B685A4918460AF0B9FB0346BE
:100D8000012B03D0FB685B79012B17D1FB681B7922
:100D90001846FB681B681A46524902F06BFBFB6859
:100DA0001B795149184602F065FBFB681B79184610
:100DB0004E4B4F4A4F4902F05DFB8AE0FB689B684F
:100DC00004331B684A4918460AF092FB0346012B7C
:100DD0007DD1FB681B791846474B0593474B04931D
:100DE000474B0393474B0293474B0193474B009369
:100DF000474B484A484902F03DFB0023BB7762E07D
:100E000007F11802BB7F1146184605F075FF07F180
:100E10001702BB7F1146184606F0DAF907F11602F1
:100E2000BB7F1146184606F05DF907F11502BB7F3E
:100E30001146184606F0DEF807F11402BB7F114692
:100E4000184606F04DF8FB681B799946BB7F18469B
:100E500006F046FA8046BB7F184605F0E7FD0346DC
:100E60009A46BB7F184605F08FFE0346BB60FB7DAC
:100E7000184606F0DDF90446BB7D184606F0EEF98B
:100E800005467B7D184606F0FFF906463B7D184671
:100E900006F010FA7860BB6918460CF069FA024651
:100EA0000B46CDE906237A680492039602950194D5
:100EB000BB680093534642461849484602F0DAFAA6
:100EC000BB7F0133BB77BB7F002B99D001E00223AE
:100ED000FB77FB7F18462037BD46BDE8F08700BF93
:100EE00064480108D0490108A8490108104D0108CB
:100EF000104B0108004A0108584D0108604D0108D7
:100F0000684D0108704D0108E44B0108784D010857
:100F1000244D0108644C01082C4D0108804D010846
:100F20002DE9F0478CB006AFF8600123FB75FB6834
:100F30009B6804331B684B4918460AF0D9FA0346EC
:100F4000012B03D0FB685B79012B17D1FB681B7960
:100F50001846FB681B681A46434902F08BFAFB6887
:100F60001B794249184602F085FAFB681B7918463E
:100F70003F4B404A404902F07DFA6DE0FB689B68B8
:100F800004331B683B4918460AF0B2FA0346012BAA
:100F900060D1FB681B791846384B0393384B02939A
:100FA000384B0193384B0093384B394A394902F09A
:100FB00061FA0023BB7549E007F11502BB7D1146BC
:100FC000184609F089FA07F1130207F11401BB7DF5
:100FD000184609F0AFFA07F1110207F11201BB7DC3
:100FE000184609F0D5FAFB681B799946BB7D18466F
:100FF00009F05AFA8046BB7D184608F037FF0346D1
:101000009A467B7D184606F06BF906463B7D03F158
:101010004104FB7CBB60BB7C03F141057B7C7B60B6
:10102000BB7D184609F026FA034605937A680492B8
:101030000395BB68029301940096534642461649B5
:10104000484602F017FABB7D0133BB75BB7D002B10
:10105000B2D001E00223FB75FB7D18461837BD4670
:10106000BDE8F08764480108D0490108A849010893
:10107000AC4D0108104B0108004A0108DC4D010885
:10108000E84D0108EC4D0108F04D0108784D0108CC
:10109000644C0108B84D0108F84D010880B59AB0BC
:1010A00000AF7860012387F867307B689B68043362
:1010B0001B68A94918460AF01BFA0346012B03D006
:1010C0007B685B79012B2FD17B681B7918467B6885
:1010D0001B681A46A14902F0CDF97B681B79A0492B
:1010E000184602F0C7F97B681B7918469D4B9E4A4B
:1010F0009E4902F0BFF97B681B7918469C4B9D4ABC
:101100009A4902F0B7F97B681B7918469A4B9B4ABB
:10111000964902F0AFF97B681B791846984B994ABB
:10112000924902F0A7F999E17B689B6804331B6838
:10113000954918460AF0DCF90346012B25D17B6856
:101140005B79032B1DD17B689B6808331B6807F113
:101150005902114618460AF099FA0346002B0CD0A2
:1011600097F85930184603F065FB0346002B40F012
:101170007581052387F8673070E1042387F86730AD
:101180006CE1032387F8673068E17B689B68043370
:101190001B687E4918460AF0ABF90346012B7BD148
:1011A0007B685B79052B73D1012387F85A307B6804
:1011B0009B6808331B6807F15402114618460AF071
:1011C000C3FA03461A4697F85A30134087F85A3044
:1011D0007B689B680C331B6807F150021146184668
:1011E0000AF0B2FA03461A4697F85A30134087F8C5
:1011F0005A307B689B6810331B6807F14C0211461C
:1012000018460AF0A1FA03461A4697F85A301340D6
:1012100087F85A303B6DFE2B94BF01230023DBB2CD
:101220005AB297F95A3013405BB287F85A30FB6CC8
:10123000B3F5805F94BF01230023DBB25AB297F964
:101240005A3013405BB287F85A3097F85A30002B67
:101250001AD000233B6612E07A6D3B6E134407F10F
:1012600050010122184603F077FB0346002B03D1FF
:10127000052387F86730F1E03B6E01333B66FB6C7A
:101280003A6E9A42E8D3E9E0042387F86730E5E054
:10129000032387F86730E1E07B689B6804331B68B1
:1012A0003B4918460AF024F90346012B78D17B68A4
:1012B0005B79032B4CD17B689B6808331B6807F173
:1012C0004802114618460AF03FFA0346002B3BD06D
:1012D000BB6C07F10C013222184603F0F3FA034607
:1012E000002B03D1052387F86730B7E00023FB65A7
:1012F00020E0F96D274BA3FB0123DA0813469B007E
:1013000013445B00CA1A002A05D17B681B79224965
:10131000184602F0AFF87B681B79184607F10C02FB
:10132000FB6D13441B781A461C4902F0A3F8FB6DB1
:101330000133FB65FB6D312BDBD97B681B791649CB
:10134000184602F097F889E0042387F8673085E0B3
:10135000032387F8673081E064480108D049010819
:10136000A8490108244E0108304E0108004A01082E
:10137000444E0108504E01086C4E0108844E01088D
:10138000944E0108A04E0108084D0108B84E01080E
:10139000C04E0108CDCCCCCCD44A0108C84E0108BF
:1013A0007B689B6804331B682F4918460AF0A0F835
:1013B0000346012B4FD17B685B79042B47D1012376
:1013C00087F85B307B689B6808331B6807F1440231
:1013D000114618460AF0B8F903461A4697F85B30EA
:1013E000134087F85B307B689B680C331B6807F100
:1013F0004002114618460AF0A7F903461A4697F824
:101400005B30134087F85B303B6CB3F5805F94BF73
:1014100001230023DBB25AB297F95B3013405BB271
:1014200087F85B3097F85B30002B0CD07B6C3A6C04
:101430001146184603F0D4FA0346002B0ED10523BB
:1014400087F867300AE0042387F8673006E0032353
:1014500087F8673002E0022387F8673097F8673033
:1014600018466837BD4680BDD44E010880B584B0AB
:1014700000AF78600123FB737B689B6804331B68B3
:101480001B4918460AF034F80346012B03D07B6849
:101490005B79012B17D17B681B7918467B681B6829
:1014A0001A46144901F0E6FF7B681B791249184679
:1014B00001F0E0FF7B681B791846104B104A114978
:1014C00001F0D8FF0FE07B689B6804331B680C4970
:1014D00018460AF00DF80346012B02D106F020FC55
:1014E00001E00223FB73FB7B18461037BD4680BD2D
:1014F00064480108D0490108A8490108DC4E0108E8
:10150000484A0108004A010880B5ADF5876D02AF71
:101510003B1D1860012387F82F343B1D1B689B6817
:1015200004331B689B49184609F0E2FF0346012B70
:1015300004D03B1D1B685B79012B51D13B1D1B68FF
:101540001B7918463B1D1B681B681A46924901F01F
:1015500091FF3B1D1B681B799049184601F08AFFDB
:101560003B1D1B681B7918468D4B8E4A8E4901F036
:1015700081FF3B1D1B681B7918468C4B8C4A8A499E
:1015800001F078FF3B1D1B681B791846874B894A81
:10159000854901F06FFF3B1D1B681B791846834B83
:1015A000854A814901F066FF3B1D1B681B7918467F
:1015B000824B834A7C4901F05DFF3B1D1B681B7910
:1015C0001846804B804A784901F054FF3B1D1B6848
:1015D0001B7918467D4B7E4A734901F04BFFD1E0E1
:1015E0003B1D1B689B6804331B687949184609F04A
:1015F0007FFF0346012B02D107F0A9FAC2E03B1D91
:101600001B689B6804331B687249184609F070FF19
:101610000346012B25D107F10C034FF48072FF2103
:1016200018460CF0F5FD0123C7F82834D7F8283404
:101630001B02C7F8243407F10C034FF480720092A8
:101640004FF48072D7F82414002002F023FD0346E3
:1016500087F8233407F10C031A7807F10C031A708A
:1016600090E03B1D1B689B6804331B685A49184671
:1016700009F03EFF0346012B17D107F20C43142259
:10168000A32118460CF0C4FD07F20C43142200926B
:10169000E6220121002002F081FC034687F82C3469
:1016A00097F80C3487F80C346CE03B1D1B689B6882
:1016B00004331B684949184609F01AFF0346012BF9
:1016C0001BD107F10C034FF48072A32118460CF0D4
:1016D0009FFD07F10C034FF480720092002201215C
:1016E000002006F06FFC034687F82D3407F10C0349
:1016F0001A7807F10C031A7044E03B1D1B689B68C5
:1017000004331B683649184609F0F2FE0346012BE4
:1017100019D107F10C034FF48062112118460CF027
:1017200077FD07F10C024FF480630021002006F0E2
:10173000A1FC034687F82E3407F10C031A7807F151
:101740000C031A701EE03B1D1B689B6804331B686A
:101750002449184609F0CCFE0346012B12D03B1D4C
:101760001B689B6804331B681749184609F0C0FEC4
:101770000346012B03D1002002F0E0FC02E002232B
:1017800087F82F3497F82F34184607F58667BD463B
:1017900080BD00BF64480108D0490108A84901087C
:1017A000F44E0108004F0108004A0108244F0108C7
:1017B000304F0108544F0108744F0108984F010839
:1017C000AC4F0108BC4F0108C84F0108DC4E0108AE
:1017D000484A0108D44F0108DC4F0108E44F0108D2
:1017E000EC4F0108F44F010880B586B000AF786077
:1017F0000123FB757B689B6804331B685B491846B3
:1018000009F076FE0346012B03D07B685B79012B40
:101810001FD17B681B7918467B681B681A465449A0
:1018200001F028FE7B681B795249184601F022FE20
:101830007B681B791846504B504A514901F01AFEFB
:101840007B681B7918464F4B4F4A4D4901F012FEF9
:1018500087E07B689B6804331B684849184609F099
:1018600047FE0346012B32D100233B617B681B7985
:101870004649184601F0FEFD0023BB7523E007F141
:101880001002BB7D1146184604F002F87B681B79F4
:101890001846BA7D3B693E4901F0ECFDBA7D3D4BEF
:1018A000A3FB021399080B469B000B44D31ADBB22F
:1018B000042B05D17B681B793749184601F0DAFD06
:1018C000BB7D0133BB75BB7D132BD8D949E07B6849
:1018D0009B6804331B683149184609F009FE03462A
:1018E000012B3CD17B685B79042B35D101237B75BF
:1018F0000023FB730023BB607B689B6808331B6875
:1019000007F10F021146184609F0F2FE03461A4687
:101910007B7D13407B757B689B680C331B6807F1EC
:1019200008021146184609F00FFF03461A467B7D50
:1019300013407B757B7D002B0BD0FB7BBA68114677
:10194000184603F089FF0346002B0AD10523FB75D7
:1019500007E00523FB7504E00323FB7501E0022388
:10196000FB75FB7D18461837BD4680BD64480108ED
:10197000D0490108A8490108FC4F0108104B010893
:10198000004A010808500108185001082C500108AD
:1019900040500108CDCCCCCCD44A010850500108AD
:1019A0002DE9F04798B006AF7860012387F84730FB
:1019B0007B689B6804331B68AC49184609F098FDA6
:1019C0000346012B03D07B685B79012B47D17B68F1
:1019D0001B7918467B681B681A46A54901F04AFD29
:1019E0007B681B79A349184601F044FD7B681B798D
:1019F0001846A14BA14AA24901F03CFD7B681B7926
:101A00001846A04BA04A9E4901F034FD7B681B7923
:101A100018469E4B9E4A9A4901F02CFD7B681B7923
:101A200018469C4B9C4A964901F024FD7B681B7923
:101A300018469A4B9A4A924901F01CFD7B681B7923
:101A40001846984B984A8E4901F014FD7B681B7923
:101A50001846964B964A8A4901F00CFD31E37B68A3
:101A60009B6804331B689349184609F041FD0346FF
:101A7000012B4CD17B685B79032B44D1012387F880
:101A80003B307B689B6808331B6807F130021146C6
:101A9000184609F059FE03461A4697F83B301340A2
:101AA00087F83B3097F83B30002B03D1052387F8AC
:101AB000473006E33B6B07F134021146184609F044
:101AC000DDF90346002B03D1052387F84730F8E200
:101AD0007B681B791C46BB8E1D4697F836301E4628
:101AE00097F8373097F8382097F8391097F83A0078
:101AF000039002910192009333462A466E49204694
:101B000001F0B8FCDDE2032387F84730D9E27B68B7
:101B10009B6804331B686949184609F0E9FC0346D1
:101B2000012B40F0CF80002387F841307B685B7940
:101B3000082B40F09680012387F840307B689B6833
:101B400008331B6807F124021146184609F0FCFD12
:101B500003461A4697F84030134087F840307B6AB6
:101B60009BB23B857B689B680C331B6807F12402A2
:101B70001146184609F0E8FD03461A4697F840302A
:101B8000134087F840307B6ADBB287F82A307B68E5
:101B90009B6810331B6807F124021146184609F0B0
:101BA000D3FD03461A4697F84030134087F840307B
:101BB0007B6ADBB287F82B307B689B6814331B6829
:101BC00007F124021146184609F0BEFD03461A46E5
:101BD00097F84030134087F840307B6ADBB287F8D3
:101BE0002C307B689B6818331B6807F12402114670
:101BF000184609F0A9FD03461A4697F840301340ED
:101C000087F840307B6ADBB287F82D307B689B68B1
:101C10001C331B6807F124021146184609F094FD95
:101C200003461A4697F84030134087F840307B6AE5
:101C3000DBB287F82E3097F84030002B0DD007F13B
:101C40002803184609F0CDF8F8637B681B79FA6B16
:101C50001B49184601F00EFC33E2042387F8473095
:101C60002FE2032387F847302BE200BF64480108C6
:101C7000D0490108A849010854500108104B010837
:101C8000004A010864500108745001088C50010892
:101C9000A0500108A8500108B8500108E050010800
:101CA000F05001080451010814510108385101088D
:101CB0004851010854510108585101087851010850
:101CC0007C5101087B689B6804331B68BC4918463B
:101CD00009F00EFC0346012B00F0F3817B689B6842
:101CE00004331B68B749184609F002FC0346012B70
:101CF00043D17B685B79022B0FD17B681B791C4633
:101D000008F004FF034618460BF032FB02460B4670
:101D1000AD49204601F0AEFBD3E17B685B79032B34
:101D200027D1012387F842307B689B6808331B6802
:101D300007F120021146184609F0A1FD03461A4694
:101D400097F84230134087F8423097F84230002B22
:101D500003D1052387F84730B3E13B6A184608F002
:101D60002BFE0346002B40F0AC81052387F847305B
:101D7000A7E1032387F84730A3E17B689B6804331E
:101D80001B689249184609F0B3FB0346012B40F04B
:101D90000981002387F844307B685B79022B68D186
:101DA000012387F8443007F118030021184608F092
:101DB00021FF03461A4697F84430134087F8443011
:101DC00007F110030121184608F014FF03461A46D4
:101DD00097F84430134087F8443097F84430002B8C
:101DE00003D1052387F847306BE17B681B791E46DA
:101DF0003B8B9C46BB7E9E46FB7E19463B7F18462E
:101E00007B7F1C46BB7F1D464FF000024FF0000356
:101E1000CDE9042303950294019000917346624634
:101E20006B49304601F026FB7B681B7998463B8A5C
:101E30009946BB7C9A46FB7C1C463B7D1D467B7DC0
:101E40001E46BB7D3B6008F061FE034618460BF062
:101E50008FFA02460B46CDE904233B6803930296B2
:101E60000195009453464A465949404601F002FB09
:101E700027E17B685B79082B40F09080012387F88D
:101E800043307B689B6808331B6807F10C021146DE
:101E9000184609F059FC03461A4697F84330134098
:101EA00087F84330FB689BB23B837B689B680C33AD
:101EB0001B6807F10C021146184609F045FC034661
:101EC0001A4697F84330134087F84330FB68DBB27B
:101ED000BB767B689B6810331B6807F10C021146C8
:101EE000184609F031FC03461A4697F84330134070
:101EF00087F84330FB68DBB2FB767B689B68143362
:101F00001B6807F10C021146184609F01DFC034638
:101F10001A4697F84330134087F84330FB68DBB22A
:101F20003B777B689B6818331B6807F10C021146EE
:101F3000184609F009FC03461A4697F84330134047
:101F400087F84330FB68DBB27B777B689B681C3388
:101F50001B6807F10C021146184609F0F5FB034611
:101F60001A4697F84330134087F84330FB68DBB2DA
:101F7000BB7797F84330002B0CD007F118031846B5
:101F800008F008FE0346002B40F09B80052387F8ED
:101F9000473096E0042387F8473092E0032387F820
:101FA00047308EE07B689B6804331B6809491846FC
:101FB00009F09EFA0346012B0ED108F0EDFC80E0FB
:101FC000545101088851010890510108A05101089D
:101FD000A8510108A05001087B689B6804331B6866
:101FE0003B49184609F084FA0346012B1ED17B6851
:101FF0001B791846374B384A384901F03BFA7B6861
:102000001B791D4608F09CFC0346184608F0A2FC0C
:10201000044608F045FC0346184608F07BFC0346DE
:1020200022462E49284601F025FA4AE07B689B6843
:1020300004331B682A49184609F05AFA0346012B53
:102040003CD1032387F84630002387F845307B686E
:102050009B6808331B682349184609F049FA034670
:10206000012B06D1022387F84630012387F845303B
:1020700010E07B689B6808331B681B49184609F011
:1020800037FA0346012B05D1012387F84630012397
:1020900087F8453097F84530002B0BD097F846303D
:1020A000184608F007FC0346002B0AD1052387F8E1
:1020B000473006E0042387F8473002E0022387F820
:1020C000473097F8473018464837BD46BDE8F08797
:1020D000104B0108E44B0108D0510108D851010808
:1020E000E8510108F0510108F851010890B5ADF22E
:1020F0001C4D02AF3B1D1860012387F80F343B1DB8
:102100001B689B6804331B686149184609F0F0F9A5
:102110000346012B04D03B1D1B685B79012B24D1A6
:102120003B1D1B681B7918463B1D1B681B681A4624
:10213000584901F09FF93B1D1B681B795649184609
:1021400001F098F93B1D1B681B791846534B544A04
:10215000544901F08FF93B1D1B681B791846524BFF
:10216000524A504901F086F98BE03B1D1B689B6881
:1021700004331B684E49184609F0BAF90346012B8F
:1021800058D13B1D1B685B79032B4FD1002387F887
:102190000D34022387F80E343B1D1B689B680833FF
:1021A0001B684449184609F0A3F90346012B03D1E3
:1021B000002387F80E340EE03B1D1B689B68083334
:1021C0001B683D49184609F093F90346012B02D1DB
:1021D000012387F80E3497F80E34012B22D807F12B
:1021E0000C034FF48061184606F008FF97F80E04C0
:1021F000012300930023002247F2305106F044FFF0
:102200000346002B03D0012387F80F3402E0052397
:1022100087F80F343B1D1B681B792849184601F0CD
:1022200029F92EE0022387F80F342AE0032387F8E8
:102230000F3426E03B1D1B689B6804331B6818495C
:10224000184609F055F90346012B17D1092387F8E1
:102250000C3407F20C43184607F09AFB3B1D1B6831
:102260001B791C4697F80C34184607F0A9FB034667
:102270001A461349204601F0FDF802E0022387F8D0
:102280000F3497F80F34184607F21447BD4690BD37
:1022900064480108D0490108A849010854500108C0
:1022A000104B0108004A010864500108045201085B
:1022B000185201082052010824520108D44A01088A
:1022C0002C5201082DE9F0418CB002AF7860012357
:1022D00087F827307B689B6804331B68BB49184626
:1022E00009F006F90346012B03D07B685B79012BCB
:1022F0003FD17B681B7918467B681B681A46B44936
:1023000001F0B8F87B681B79B249184601F0B2F8C1
:102310007B681B791846B04BB04AB14901F0AAF866
:102320007B681B791846AF4BAF4AAD4901F0A2F864
:102330007B681B791846AD4BAD4AA94901F09AF864
:102340007B681B791846AB4BAB4AA54901F092F864
:102350007B681B791846A94BA94AA14901F08AF864
:102360007B681B791846A74BA74A9D4901F082F864
:102370005EE27B689B6804331B68A349184609F03A
:10238000B7F80346012B73D1002003F0D1FE0346BA
:10239000002B03D10121002003F02EFB002003F0CD
:1023A00057FF0A2009F0D6FAB86100BFB86909F0F2
:1023B000FEFA0346002BF9D00121002004F0BEF8FC
:1023C0000A2009F0C7FAB86100BFB86909F0EFFA4E
:1023D0000346002BF9D007F114030422002118460C
:1023E0000BF016FF07F110030422002118460BF032
:1023F0000FFF9F233B7500237B750023BB750023D4
:10240000FB7507F1100207F114010423002004F00A
:1024100009F90021002004F091F8002003F092FF58
:102420007B681B797949184601F024F8002387F866
:10243000263012E07B681B79184697F8263007F1A2
:102440002802134413F8183C1A46714901F012F897
:1024500097F82630013387F8263097F82630032B7B
:10246000E8D97B681B796949184601F003F8DFE178
:102470007B689B6804331B686649184609F038F886
:102480000346012B40F03A817B689B6808331B6848
:102490006149184609F02CF80346012B45D17B68A9
:1024A0001B7918465D4B01935D4B00935D4B5E4A73
:1024B0005E4900F0DFFF002387F8253030E007F1A8
:1024C0000F0297F825301146184603F09FFE7B68EF
:1024D0001B791E4697F82530184604F049F9044642
:1024E00097F82530184603F023FE0346984697F8E0
:1024F0002530184603F06EFE03461D46FB7B18464A
:1025000004F052F903460193009543462246484998
:10251000304600F0AFFF97F82530013387F82530BB
:1025200097F82530002BCAD082E17B689B6808337E
:102530001B684049184608F0DBFF0346012B7BD19E
:102540007B685B79052B3CD10023BB77012387F89F
:102550002430002387F8243015E097F824301846FB
:1025600004F006F902467B689B680C331B68194629
:10257000104608F0BDFF0346002B09D197F8243020
:10258000013387F8243097F82430002BE5D000E0A1
:1025900000BF7B689B6810331B6818460BF0B6FCC5
:1025A0000346BB77BA7F97F824301146184603F0EC
:1025B00023FA0346002B40F03B81052387F82730A0
:1025C00036E1032387F8273032E100BF6448010871
:1025D000D0490108A84901083C52010848520108A5
:1025E000004A01085452010860520108785201085B
:1025F00090520108A8520108B8520108C4520108BB
:10260000D4520108F0520108484A0108D44A01088E
:102610000453010808530108104B01082453010812
:102620002C530108244D0108644C01080C53010887
:1026300038530108084D01087B689B6808331B6804
:102640007F49184608F054FF0346012B52D17B689E
:102650005B79052B4AD10023FB77012387F82330D0
:10266000002387F8233015E097F82330184604F04C
:102670009BF802467B689B680C331B681946104622
:1026800008F036FF0346002B09D197F823300133B9
:1026900087F8233097F82330002BE5D000E000BF07
:1026A0007B689B6810331B6818460BF02FFC0346B1
:1026B000FB77FB7F002B0CD097F82330184603F0F4
:1026C000C7FD0346002B40F0B380052387F8273071
:1026D000AEE097F82330184603F034FE0346002B93
:1026E00040F0A680052387F82730A1E0032387F870
:1026F00027309DE0022387F8273099E07B689B68AC
:1027000004331B684F49184608F0F2FE0346012BBC
:1027100040F08B807B689B6808331B684A491846E9
:1027200008F0E6FE0346012B29D17B681B79184689
:10273000464B474A474900F09DFE002387F8223068
:1027400018E07B681B791D4697F82230184604F084
:102750002BF8044697F82230184603F037FF03465B
:1027600022463D49284600F085FE97F82230013385
:1027700087F8223097F82230002BE2D058E07B68AF
:102780009B6808331B683549184608F0B1FE0346BC
:10279000012B46D17B685B79052B3ED1002387F85E
:1027A0002030012387F82130002387F8213015E0FD
:1027B00097F82130184603F0F7FF02467B689B68C4
:1027C0000C331B681946104608F092FE0346002B96
:1027D00009D197F82130013387F8213097F821305B
:1027E000002BE5D000E000BF7B689B6810331B68BE
:1027F00018460BF08BFB034687F8203097F8202013
:1028000097F821301146184603F098FE0346002B36
:102810000ED1052387F827300AE0032387F82730F5
:1028200006E0022387F8273002E0022387F82730EA
:1028300097F8273018462837BD46BDE8F08100BF1D
:102840005053010858530108104B01086053010808
:10285000644C0108D85101086C5301087C530108ED
:1028600080B582B000AF0023FB7101F027F800F0C3
:102870009BFE0123FB71FB7918460837BD4680BDDE
:1028800080B485B000AF03463960FB710023FB7351
:10289000FB79002B0ED13B68002B0BD0FA7908494D
:1028A0001346DB0013449B010B4410333A681A6053
:1028B0000123FB73FB7B18461437BD4680BC704771
:1028C0001C01002080B483B000AF03463960FB7167
:1028D000FB79002B0DD13B68002B0AD0FA79074910
:1028E0001346DB0013449B010B4410331A683B680A
:1028F0001A6000BF0C37BD4680BC70471C01002029
:1029000080B485B000AF03460A46FB711346BB7125
:102910000023FB73FB79002B09D1FA790749134691
:10292000DB0013449B010B440433BA791A70FB7B20
:1029300018461437BD4680BC704700BF1C010020FC
:1029400080B584B000AF03463960FB710023FB7390
:10295000FB79002B24D1FA7914491346DB00134488
:102960009B010B443C331B78002B19D1FA790F499A
:102970001346DB0013449B010B4404331B78002BEC
:102980000ED0FA7909491346DB0013449B010B442E
:102990003C331B783968184605F030FA0346FB7360
:1029A000FB7B18461037BD4680BD00BF1C010020D0
:1029B00080B485B000AF03460A46FB711346BB7175
:1029C0000023FB73FB79002B0BD1FA7908491346DE
:1029D000DB0013449B010B440533BA791A700123C1
:1029E000FB73FB7B18461437BD4680BC704700BFA5
:1029F0001C01002080B582B000AF0023FB71FF23D3
:102A0000BB710023FB711CE0FA7912491346DB000D
:102A100013449B010B4405331B78002B0ED0BA1DC9
:102A2000FB7911461846FFF78BFF0346002B05D0B4
:102A3000BA79FB791146184600F00EF8FB7901339C
:102A4000FB71FB79002BDFD000BF00BF0837BD460C
:102A500080BD00BF1C010020B0B584B000AF0346AC
:102A60000A46FB711346BB710023FB73FB79002BF5
:102A700040F0E581FA79B9491346DB0013449B0124
:102A80000B4404331B78002B00F0D9810123FB7326
:102A9000FA79B2491346DB0013449B010B441B3304
:102AA0001B781B2B68D1FA79AC491346DB00134421
:102AB0009B010B440C331B68184608F0B0FF03461B
:102AC000C82B59D90023BB731AE0F979BB7B5C1C76
:102AD000FA79B87BA14D0B46DB000B449B012B44DC
:102AE000234417331C789D491346DB0013449B0194
:102AF0000B440344173322461A70BB7B0133BB736C
:102B0000BB7B032BE1D9FA79B97B94481346DB00F0
:102B100013449B0103440B44173300221A70002313
:102B2000BB731AE0F979BB7B5C1CFA79B87B8B4DDF
:102B30000B46DB000B449B012B44234417331C78CA
:102B400086491346DB0013449B010B4403441733AF
:102B500022461A70BB7B0133BB73BB7B032BE1D9CD
:102B6000FA79B97B7D481346DB0013449B0103448B
:102B70000B44173300221A70FC7908F049FF024613
:102B800076492346DB0023449B010B440C331A6037
:102B90000023BB731AE0F979BB7B5C1CFA79B87B24
:102BA0006E4D0B46DB000B449B012B442344173333
:102BB0001C786A491346DB0013449B010B44034411
:102BC000173322461A70BB7B0133BB73BB7B032BCD
:102BD000E1D9FA79B97B61481346DB0013449B01C4
:102BE00003440B441733BA791A70FA795B491346D8
:102BF000DB0013449B010B4419331B781B2B1AD1A8
:102C0000FA7956491346DB0013449B010B441A33EF
:102C10001B785B2B0FD1FA7950491346DB00134424
:102C20009B010B441B331B78412B04D1FB791846C5
:102C300000F076FB03E1FA7948491346DB001344C0
:102C40009B010B4419331B781B2B1AD1FA7943498A
:102C50001346DB0013449B010B441A331B785B2B98
:102C60000FD1FA793D491346DB0013449B010B4415
:102C70001B331B78422B04D1FB79184600F0C6FAAF
:102C8000DDE0FA7935491346DB0013449B010B4420
:102C900019331B781B2B16D1FA7930491346DB0008
:102CA00013449B010B441A331B785B2B0BD1FA792D
:102CB0002A491346DB0013449B010B441B331B784A
:102CC000432B00F0BC80FA7924491346DB001344FF
:102CD0009B010B4419331B781B2B16D1FA791F4922
:102CE0001346DB0013449B010B441A331B785B2B08
:102CF0000BD1FA7919491346DB0013449B010B44AD
:102D00001B331B78442B00F09A80FA791349134641
:102D1000DB0013449B010B441B331B781B2B00F07F
:102D20008E80FA790D491346DB0013449B010B4456
:102D30001A331B781B2B00F08280FA79074913465F
:102D4000DB0013449B010B441B331B787F2B07D103
:102D5000FB79184600F07EF871E000BF1C010020EE
:102D6000BB79092B6BD0BB791F2B09D9BB797E2B83
:102D700006D8BA79FB791146184600F0A1F85EE052
:102D8000BB79082B04D1FB79184600F0CBF856E04C
:102D9000BB790D2B53D1FA792B491346DB00134431
:102DA0009B010B4415331B78184600F071FD034658
:102DB0001B78002B19D0FA7923491346DB00134402
:102DC0009B010B4416331C78FA791F491346DB002C
:102DD00013449B010B4415331B78184600F058FD33
:102DE00003461946204600F0CFFDFB79184600F057
:102DF000C9F8FA7914491346DB0013449B010B44CC
:102E000015331B78184600F0DDFBFA790E4913469E
:102E1000DB0013449B010B443C331B780B491846E1
:102E200000F028FBFA7908491346DB0013449B01A4
:102E30000B443C331B780649184600F01BFBFB7B18
:102E400018461037BD46B0BD1C0100204C54010887
:102E50005054010880B582B000AF0346FB71FA7987
:102E600014491346DB0013449B010B4415331B78B4
:102E7000184600F0A7FBFA790E491346DB0013440D
:102E80009B010B443C331B780B49184600F0F2FAC7
:102E9000FA7908491346DB0013449B010B443C3389
:102EA0001B780649184600F0E5FA00BF0837BD4612
:102EB00080BD00BF1C01002054540108505401087B
:102EC00080B584B000AF03460A46FB711346BB7160
:102ED0000023FB73FA7912491346DB0013449B016C
:102EE0000B4415331B78BA791146184600F0B6FB2F
:102EF0000346002B0FD0FA7909491346DB0013442F
:102F00009B010B443C331B78BA791146184600F0FC
:102F100013FB0346FB73FB7B18461037BD4680BD91
:102F20001C01002080B584B000AF0346FB71002374
:102F3000FB73FA7911491346DB0013449B010B44E0
:102F400015331B780021184600F02AFC0346002B9D
:102F50000ED0FA7909491346DB0013449B010B4458
:102F60003C331B780649184600F084FA0123FB73B2
:102F7000FB7B18461037BD4680BD00BF1C010020FA
:102F80006054010890B58DB004AF0346FB71002377
:102F9000FB770023BB830023BB61FA799549134675
:102FA000DB0013449B010B4415331B78184600F0DB
:102FB0006FFC034618460CF00AF90346BB83BB8B33
:102FC000002B00F01281FA791346DB0013449B01B9
:102FD0001833884A134404332022002118460BF08A
:102FE00017F9FA7983491346DB0013449B010B441C
:102FF00015331B78184600F04BFCFA791346DB00BA
:1030000013449B0118337B4A13440433B98B0822C1
:1030100002920193222300930123202208F097FAC1
:103020000346FB77FA7973491346DB0013449B018F
:103030000B443C331B787049184600F01BFAFA79B0
:103040006C491346DB0013449B010B4410331B688F
:10305000002B00F0A680FA7966491346DB00134482
:103060009B010B4410331868FA7962491346DB0060
:1030700013449B010B441C331B6807F118021946CB
:10308000FDF74CF90346012B3FD1FA795949134614
:10309000DB0013449B010B4410331968BA691346D3
:1030A0005B0013449B000B441B68FB60FB793B7483
:1030B000FB7F7B74FA791346DB0013449B011833C2
:1030C0004C4A134404337B61FA794A491346DB00C6
:1030D00013449B010B4410331968BA6913465B0013
:1030E00013449B000B445B68FC7907F10C0210460B
:1030F0009847034619463F4A2346DB0023449B0179
:10310000134414330A461A7009E0FA793949134610
:10311000DB0013449B010B44143302221A70FA792A
:1031200034491346DB0013449B010B4414331B78D2
:10313000012B0DD0FA792F491346DB0013449B0174
:103140000B443C331B782D49184600F093F90CE0F2
:10315000FA7928491346DB0013449B010B443C33A6
:103160001B782749184600F085F9FA79214913465A
:10317000DB0013449B010B443C331C78FA791D4956
:103180001346DB0013449B010B4414331B78184691
:10319000FDF7ACF803461A461A49204600F06AF9D2
:1031A00023E0FA7913491346DB0013449B010B44D7
:1031B0003C331B781149184600F05CF9FA790D4947
:1031C0001346DB0013449B010B443C331B780E4930
:1031D000184600F04FF9FA7906491346DB0013440C
:1031E0009B010B44143300221A7000BF2437BD46E4
:1031F00090BD00BF1C010020645401086C540108FC
:103200004C540108745401087C54010890B585B0F1
:1032100000AF0346FB710023FB60FA793C4913467B
:10322000DB0013449B010B4416331B78184600F057
:1032300043FE0346002B66D0FA7935491346DB007E
:1032400013449B010B4415331B78184600F0BAF960
:103250000023FB6010E0FB680133FB60FA792C4926
:103260001346DB0013449B010B4415331B78FA7A99
:103270001146184600F0F2F9FA7925491346DB00A9
:1032800013449B010B4416331B7807F10B02F968BA
:10329000184600F0E7FC0346002BDCD1FA791C4904
:1032A0001346DB0013449B010B443C331B78194944
:1032B000184600F0DFF8FA7915491346DB0013448D
:1032C0009B010B443C331B781349184600F0D2F89D
:1032D000FA790F491346DB0013449B010B443C333E
:1032E0001C78FA790A491346DB0013449B010B440E
:1032F00015331B78184600F0CBFA03461A460749E7
:10330000204600F0B7F800BF1437BD4690BD00BF9F
:103310001C0100205454010850540108A054010815
:1033200090B585B000AF0346FB710023FB60FA79CE
:103330003C491346DB0013449B010B4416331B78B6
:10334000184600F037FD0346002B66D0FA79354960
:103350001346DB0013449B010B4415331B781846BE
:1033600000F030F90023FB6010E0FB680133FB60E4
:10337000FA792C491346DB0013449B010B441533A7
:103380001B78FA7A1146184600F068F9FA7925494F
:103390001346DB0013449B010B4416331B7807F1E3
:1033A0000B02F968184600F05DFC0346002BDCD1E7
:1033B000FA791C491346DB0013449B010B443C3350
:1033C0001B781949184600F055F8FA791549134643
:1033D000DB0013449B010B443C331B781349184614
:1033E00000F048F8FA790F491346DB0013449B01BB
:1033F0000B443C331C78FA790A491346DB0013442A
:103400009B010B4415331B78184600F041FA034624
:103410001A460749204600F02DF800BF1437BD4674
:1034200090BD00BF1C0100205454010850540108F5
:10343000A054010880B485B000AF78600B467B8053
:103440000023FB737B68002B0BD07B88002B08D0FC
:10345000064A7B681360064A7B8813800123FB734E
:1034600000BF00BF1437BD4680BC70472409002050
:10347000280900200EB490B588B002AF0346FB7156
:103480000023FB75FB79002B30D11F4B1B68002BF1
:103490002CD007F12803FB601B4B18681B4B1B88C3
:1034A0001946FB687A6A0DF0B9F80346BB82174BE0
:1034B0001B88BA8A9A420BD3144B1B88013BBB82F0
:1034C000114B1A68114B1B88013B134400221A70E0
:1034D000FB79FB740C4B196807F11003BA8AF87C6E
:1034E0000024009404F0F2FC0346FB75FB7D002BE6
:1034F00001D03B8A01E04FF0FF3318461837BD4634
:10350000BDE8904003B0704724090020280900203E
:1035100080B483B000AF0346FB71FB791F2B04D945
:10352000FB797E2B01D8012300E0002318460C37DD
:10353000BD4680BC7047000080B584B000AF034634
:103540000A46FB711346BB710023FB73FB79002B0A
:1035500012D1BB791846FFF7DBFF0346002B01D1E0
:10356000084BBB71FB79BB73BA79BB7B114618461C
:1035700004F076FC0346FB73FB7B18461037BD4610
:1035800080BD00BFA854010880B483B000AF0346DB
:10359000FB71044AFB79137000BF0C37BD4680BC39
:1035A000704700BF2A09002080B483B000AF002319
:1035B000FB710123FB71FB7918460C37BD4680BCBB
:1035C0007047000080B584B000AF0346FB71002354
:1035D000FB73FB79002B25D1FB79154A1B011344A2
:1035E0001B68002B1ED0FB79114A1B01134418687D
:1035F000FB790F4A1B01134404331B681A46002150
:103600000AF006FEFB790A4A1B0113440833002224
:103610001A60FB79064A1B0113440C3300221A601E
:103620000123FB73FB7B18461037BD4680BD00BFEE
:103630005C03002080B483B000AF0346FB71FB79CC
:103640001F2B04D9FB797E2B01D8012300E0002336
:1036500018460C37BD4680BC7047000080B584B06A
:1036600000AF03460A46FB711346BB710023FB7390
:103670000023BB81FB79002B40F08B80FB79474A0C
:103680001B0113441B68002B00F08380BB79184694
:10369000FFF7D0FF0346002B01D13F23BB71FB791D
:1036A0003E4A1B01134408331A68FB793B491B014E
:1036B0000B4404331B68013B9A426AD2FB79374AB8
:1036C0001B01134408331A68FB7934491B010B446E
:1036D00004331B68033B9A4224D8FB792F4A1B0111
:1036E00013440C331B68BB8113E0FB792B4A1B018D
:1036F00013441A68BB891A44FB7928491B010B44FF
:103700001968BB8901330B4412781A70BB89013BDD
:10371000BB81FB79214A1B01134408331A68BB891A
:103720009A42E2D8FB791D4A1B0113441A68FB79BF
:103730001A491B010B4408331B681344BA791A70E9
:10374000FB7916491A010A440832126801321349FA
:103750001B010B4408331A60FB79104A1B01134408
:103760000C331A68FB790D491B010B4404331B68A9
:10377000023B9A420BD8FB7908491A010A440C32E1
:103780001268013205491B010B440C331A600123F6
:10379000FB73FB7B18461037BD4680BD5C030020E1
:1037A00080B485B000AF03463960FB710023FB7322
:1037B0000023BB81FB79002B62D1FB79334A1B01CB
:1037C00013441B68002B5BD0FB79304A1B01134468
:1037D00008331B68002B53D03B68002B0FD0FB79BC
:1037E0002A4A1B0113441A68FB7928491B010B4420
:1037F00008331B68013B13441A783B681A70FB7945
:10380000224A1B01134408331B689BB2013BBB8156
:1038100013E0FB791D4A1B0113441A68BB8901336D
:103820001A44FB7919491B010B441968BB890B44E5
:1038300012781A70BB890133BB81BA89FB791349AD
:103840001B010B440C331B689A42E2D3FB790F49EE
:103850001A010A440C321268013A0C491B010B444C
:103860000C331A60FB7909491A010A4408321268BC
:10387000013A06491B010B4408331A600123FB730C
:10388000FB7B18461437BD4680BC70475C030020A4
:1038900080B483B000AF0346FB71FB79002B05D1E8
:1038A000FB79054A1B0113441B6800E000231846FE
:1038B0000C37BD4680BC70475C03002080B582B0E9
:1038C00000AF0023FB710123FB7100233B600CE080
:1038D0003B68DBB2184600F011F803461A46FB7944
:1038E0001340FB713B6801333B603B68002BEFD01A
:1038F000FB7918460837BD4680BD000080B584B00E
:1039000000AF0346FB710023FB73FB79002B34D11E
:10391000FA791C4913469B0013449B000B4418681A
:10392000FA79184913469B0013449B000B44043357
:103930001B681A4600210AF06BFCFA7911491346FC
:103940009B0013449B000B44083300221A60FA7951
:103950000C4913469B0013449B000B441033002278
:103960001A60FA79074913469B0013449B000B44E5
:103970000C3300221A700123FB73FB7B18461037AF
:10398000BD4680BD6C03002090B587B000AF0346F4
:103990003960FB710023FB750023FB603B68002B43
:1039A00000F05981FB79002B40F0558138680BF00D
:1039B0000EFCF860FA79AA4913469B0013449B0059
:1039C0000B4404331B68023BFA68934228BF13463A
:1039D000FB60FB68002B00F03E81FA79A04913469A
:1039E0009B0013449B000B441968FA799C481346CA
:1039F0009B0013449B00034408331B680B441B7853
:103A0000012B13D1FA79964913469B0013449B006E
:103A10000B440C331B78013BD8B2914913469B00F1
:103A200013449B000B440C3302461A70FA798C49FC
:103A300013469B0013449B000B441968FA7988488D
:103A400013469B0013449B00034408331B680B443C
:103A500001221A70FA79824913469B0013449B0095
:103A60000B4408331A68FC79FB791146184600F0BC
:103A700055F902467A4923469B0023449B000B4498
:103A800008331A6000233B6164E0FA7974491346F5
:103A90009B0013449B000B441968FA797048134645
:103AA0009B0013449B00034408331B680B441B78A2
:103AB000012B13D1FA796A4913469B0013449B00EA
:103AC0000B440C331B78013BD8B2654913469B006D
:103AD00013449B000B440C3302461A703A683B694E
:103AE00013441B78BB75BB7D1F2B02D9BB7D7E2B7E
:103AF00001D93F23BB75FA79594913469B001344FA
:103B00009B000B441968FA79554813469B001344EF
:103B10009B00034408331B680B44BA7D1A70FA7982
:103B20004F4913469B0013449B000B4408331A680B
:103B3000FC79FB791146184600F0F0F80246484936
:103B400023469B0023449B000B4408331A603B69C7
:103B500001333B613A69FB689A4296D3FA7940494E
:103B600013469B0013449B000B441968FA793C48A8
:103B700013469B0013449B00034408331B680B440B
:103B80001B78012B13D1FA79354913469B00134456
:103B90009B000B440C331B78013BD8B230491346D1
:103BA0009B0013449B000B440C3302461A70FA79B5
:103BB0002B4913469B0013449B000B441968FA7968
:103BC000274813469B0013449B00034408331B689B
:103BD0000B44FF221A70FA79214913469B001344C3
:103BE0009B000B440C331B780133D8B21C4913469D
:103BF0009B0013449B000B440C3302461A70FA7965
:103C0000174913469B0013449B000B4408331A6862
:103C1000FC79FB791146184600F080F802461049FD
:103C200023469B0023449B000B4408331A60F97918
:103C3000FA790B480B469B000B449B000344083366
:103C40001968074813469B0013449B000344103334
:103C500019600123FB75FB7D18461C37BD4690BDDE
:103C60006C03002080B487B000AF0346B9607A606F
:103C7000FB730023FB75FB7B002B46D17B68002B7D
:103C800043D0FA7B244913469B0013449B000B440A
:103C90000C331B78002B38D0FA7B1F4913469B004E
:103CA00013449B000B4410331A68BB681344013360
:103CB0003B61FA7B184913469B0013449B000B445D
:103CC00004331A683B69B3FBF2F102FB01F29B1A61
:103CD0003B61FA7B104913469B0013449B000B4445
:103CE0001A683B6913441B78FF2B0ED0FA7B0A49F4
:103CF00013469B0013449B000B441A683B69134412
:103D00001A787B681A700123FB75FB7D18461C37F7
:103D1000BD4680BC704700BF6C03002080B483B0F8
:103D200000AF03463960FB71FB79002B11D13B6872
:103D30005A1CF9790B480B469B000B449B0003442B
:103D400004331B68B2FBF3F103FB01F3D31A3B60AE
:103D500001E000233B603B6818460C37BD4680BC41
:103D6000704700BF6C03002080B483B000AF0346EF
:103D70003960FB71FB79002B12D13B68002B0BD112
:103D8000FA790B4913469B0013449B000B44043300
:103D90001B68013B3B6005E03B68013B3B6001E089
:103DA00000233B603B6818460C37BD4680BC70471B
:103DB0006C03002080B584B000AF0346FB71002384
:103DC000FB73FB79002B70D1FA793A4913469B00BB
:103DD00013449B000B440C331B78002B65D0FA79FD
:103DE000344913469B0013449B000B4410331B685B
:103DF000BB60FB79B9681846FFF7B6FFB860FA797F
:103E00002C4913469B0013449B000B441A68BB6863
:103E100013441B78FF2B48D1FB79B9681846FFF78C
:103E2000A3FFB860FA79234913469B0013449B0013
:103E30000B441A68BB6813441B78012B0CD1FA7928
:103E40001C4913469B0013449B000B441033BA6873
:103E50001A600123FB730CE0FA79164913469B00A4
:103E600013449B000B441A68BB6813441B78FF2B58
:103E70001AD0FA790F4913469B0013449B000B4458
:103E80001A68BB6813441B78012B0ED0FA790949D4
:103E900013469B0013449B000B441A68BB681344F1
:103EA0001B78FF2BB8D100E000BFFB7B1846103712
:103EB000BD4680BD6C03002080B584B000AF0346D2
:103EC000FB710023FB73FB79002B53D1FA792C494A
:103ED00013469B0013449B000B440C331B78002BB0
:103EE00048D0FA79264913469B0013449B000B44A3
:103EF00010331B68BB60FA79214913469B001344B9
:103F00009B000B441A68BB6813441B78012B31D10A
:103F1000FB79B9681846FFF701FFB860FA791849CC
:103F200013469B0013449B000B441A68BB68134460
:103F30001B78FF2BECD1FB79B9681846FFF7EEFE32
:103F4000B860FA790E4913469B0013449B000B445A
:103F50001A68BB6813441B78012B0BD1FA79084906
:103F600013469B0013449B000B441033BA681A603D
:103F70000123FB73FB7B18461037BD4680BD00BF95
:103F80006C03002080B500AF002000F0D7F80120BE
:103F900000F0D4F80123184680BD000080B58AB037
:103FA00000AFB9607B600346FB731346BB810023FF
:103FB00087F82730FB7B012B62D8BB68272B5FD8A3
:103FC0007B68002B5CD03B6B002B59D0BB89FF2B4F
:103FD00056D83B6BB3F5807F52D8BA893B6B1344FC
:103FE000013BB3F5807F4BD8FB7B284ADB001344B1
:103FF0001B79184607F0A8F90346002B3DD0BB6893
:104000001B02BB61BB89BA691344BB61BA693B6BD4
:104010001344013B7B6100233B62BB69FB6120E0F1
:10402000FA7B1B4913469B001344DB02CA18FB6949
:10403000134419787A683B6A13441B78FA7B0B4067
:10404000D8B2134913469B001344DB02CA18FB691C
:10405000134402461A703B6A01333B62FB69013329
:10406000FB61FA697B699A42DAD9FB7B074ADB007C
:1040700013441B79184607F085F9012387F8273088
:1040800097F8273018462837BD4680BD80030020AA
:10409000100A002080B586B000AFB9607A603B603E
:1040A0000346FB730023FB75FB7B012B3CD8BB68ED
:1040B000B3F5205F38D23B68002B35D03B6A002B2C
:1040C00032D07B68002B2FD0BA687B681344013B49
:1040D000B3F5205F28D2FB7B164ADB0013441B7923
:1040E000184607F031F90346002B1BD07A683B6A6B
:1040F0009A4201D93B6A7B60FA7B13469B001344CA
:10410000DB02BA6813440C4A13447A6819463868CB
:104110000AF070F8FB7B074ADB0013441B79184652
:1041200007F030F90123FB75FB7D18461837BD46B3
:1041300080BD00BF80030020100A002080B584B03D
:1041400000AF0346FB710023FB73FB79012B29D8D9
:10415000FB79174ADB0013441B79184607F0F4F883
:104160000346002B1ED00023BB600DE0FA791149F5
:1041700013469B001344DB02CA18BB681344FF229A
:104180001A70BB680133BB60BB68B3F5205FEDD329
:10419000FB79074ADB0013441B79184607F0F2F855
:1041A0000123FB73FB7B18461037BD4680BD00BF63
:1041B00080030020100A002080B586B000AF0346BF
:1041C0000A46FB711346BB800023FB75FB79012B6C
:1041D00034D8BB88092B31D8FB791B4ADB00134448
:1041E0001B79184607F0B0F80346002B26D0BB8891
:1041F0009B02FB60BB8801339B02013BBB60FB68F9
:104200003B610DE0FA79114913469B001344DB0230
:10421000CA183B691344FF221A703B6901333B61A2
:104220003A69BB689A42EDD9FB79074ADB0013442F
:104230001B79184607F0A6F80123FB75FB7D18468D
:104240001837BD4680BD00BF80030020100A002043
:1042500080B483B000AF0023FB710123FB71FB79B5
:1042600018460C37BD4680BC7047000080B58EB044
:1042700000AF03460A46FB711346BB71002387F863
:104280003730FB79042B00F22081BB79002B00F042
:10429000C580FA7990491346DB009B1A9B000B44BA
:1042A00019331B78042B0AD9FA798B491346DB00A2
:1042B0009B1A9B000B441A331B780F2B5DD8FA799D
:1042C00085491346DB009B1A9B000B4419331B786E
:1042D000184600F053FC0346002B0DD1FA797E49B5
:1042E0001346DB009B1A9B000B4419331B78BA79E9
:1042F0001146184600F0D2FBFA7977491346DB00E5
:104300009B1A9B000B4419331878FA7972491346AB
:10431000DB009B1A9B000B441A331B7801221946C1
:1043200000F066FDFA796C491346DB009B1A9B008E
:104330000B4419331878FA7967491346DB009B1A46
:104340009B000B441A331B780022194600F0C6FC70
:10435000FA7961491346DB009B1A9B000B44193321
:104360001878FA795C491346DB009B1A9B000B44D2
:104370001A331B78194600F006FF07F11C03184694
:1043800007F01EFC07F10C03184607F05FFCFA79F2
:1043900051491346DB009B1A9B000B440C331B68EE
:1043A0000121184607F092FF0023FB6000233B61C8
:1043B00000237B614FF4A063BB6107F10C03184637
:1043C00007F01CFC0023FB61002387F8203000234A
:1043D00087F8213000237B620023FB62012387F8EA
:1043E0003030FA793C491346DB009B1A9B000B44A2
:1043F00004331B6807F11C021146184607F08CFBBA
:10440000FA7935491346DB009B1A9B000B4418339D
:1044100001221A70012387F8373056E0FB79022B0E
:1044200046D0FB79002B43D0FB79012B40D0FA79A1
:1044300029491346DB009B1A9B000B44193318785B
:10444000FA7925491346DB009B1A9B000B441A336B
:104450001B78194600F069FEFA791F491346DB0004
:104460009B1A9B000B4419331878FA791A491346A2
:10447000DB009B1A9B000B441A331B780022194661
:1044800000F0B6FCFA7914491346DB009B1A9B0036
:104490000B4419331878FA790F491346DB009B1A3D
:1044A0009B000B441A331B780222194600F016FCBD
:1044B000FA7909491346DB009B1A9B000B44183319
:1044C00000221A70012387F8373097F837301846E2
:1044D0003837BD4680BD00BF9003002080B485B052
:1044E00000AF03463960FB710023FB73FB79042B9B
:1044F0000FD83B68002B0CD0FA7909491346DB0032
:104500009B1A9B000B4418331A783B681A700123DE
:10451000FB73FB7B18461437BD4680BC704700BF59
:1045200090030020B0B586B000AF03463A60FB713F
:104530000B46BB710023FB7500233B61FB79042B09
:1045400000F2CD803B68002B00F0C9803B68664AD2
:104550001A60FA7965491346DB009B1A9B000B44ED
:1045600018331B78012B40F0BA80FA795F49134663
:10457000DB009B1A9B000B4404331868FA795B49F3
:104580001346DB009B1A9B000B4408331978FA7919
:10459000564C1346DB009B1A9B00234410331C78B7
:1045A000FA79524D1346DB009B1A9B002B441433BF
:1045B0001B68DBB2224607F0B1FBFB79002B02D06F
:1045C000FB79012B03D1012007F070FB05E0FB799B
:1045D000022B02D1012007F085FBFA7943491346EB
:1045E000DB009B1A9B000B4404331B680121184617
:1045F00007F041FB0023FB7330E0FA793B49134697
:10460000DB009B1A9B000B4404331B68184607F021
:104610004EFC00BFFA7935491346DB009B1A9B001C
:104620000B4404331B680221184607F05BFC034669
:10463000002BEFD0FA792D491346DB009B1A9B0023
:104640000B4404331B68184607F040FC03461A4627
:104650003B6913443B61FB7B0133FB73FA7BBB7902
:104660009A42CAD3FA7921491346DB009B1A9B0070
:104670000B4404331B680021184607F0FCFAFB7951
:10468000002B02D0FB79012B03D1002007F00EFB99
:1046900005E0FB79022B02D1002007F023FB3869EB
:1046A00009F0FAF90446BB79184609F0F1F9034616
:1046B0001946204609F0F8FA03461A463B681A6084
:1046C000FB79022B09D13B681B681946184609F093
:1046D0002FF903461A463B681A600123FB75FB7DE0
:1046E00018461837BD46B0BD000080C590030020B5
:1046F00080B586B000AF0346B9607A60FB730023D3
:10470000FB75FB7B002B3AD17B68002B37D04FF039
:1047100000033B611C49B86809F008F903463B6196
:104720001A49386909F0C0FA03463B6118493869EB
:1047300009F0FEF803463B617B683A691A607B68C2
:104740001B681449184609F0B7FB0346002B01D03B
:10475000104B01E07B681B687A6813607B681B68FC
:104760000D49184609F08AFB0346002B01D00A4B7D
:1047700001E07B681B687A6813600123FB75FB7D91
:1047800018461837BD4680BD00003E44000020405A
:104790000000C8410000FA42000020C280B483B08B
:1047A00000AF0346FB71FB79042B08D8FA7907495F
:1047B0001346DB009B1A9B000B441B6800E00023A0
:1047C00018460C37BD4680BC704700BF90030020E0
:1047D00080B487B000AF0346B9607A60FB730023F2
:1047E000FB75FB7B042B1DD8BB68002B1AD07B68A4
:1047F000002B17D0FA7B0E491346DB009B1A9B0057
:104800000B441A331A787B681A70FA7B08491346EE
:10481000DB009B1A9B000B4419331A78BB681A7093
:104820000123FB75FB7D18461C37BD4680BC7047D5
:104830009003002080B582B000AF0346FB71FB7986
:10484000002B0DD001214FF0805007F021FD0120F9
:1048500007F0C4FB01214FF4802007F0FBFC07E0C8
:10486000002007F0BBFB00214FF4802007F0F2FC92
:10487000012318460837BD4680BD000080B483B0D0
:1048800000AF0023FB710D4B1B6C03F08053002B1A
:104890000ED00B4B1B681B0A03F00103002B07D043
:1048A000064B1B6B03F48023002B01D00123FB710B
:1048B000FB7918460C37BD4680BC70470038024073
:1048C0000070004080B586B000AFF860B9607A60D3
:1048D0000023FB75FFF7D2FF0346002B34D0BB68E3
:1048E000002B31D0BB683B610123FB757B68B3F5BE
:1048F000805F94BF01230023DBB25AB297F91730CF
:1049000013405BB2FB75FA687B68134440F6FF7294
:10491000934294BF01230023DBB25AB297F91730B8
:1049200013405BB2FB75FB7D002B0DD07A68002134
:10493000386909F06DFC074B1A68FB6813447A6804
:104940001946386909F056FCFB7D18461837BD46F4
:1049500080BD00BF1C04002080B586B000AFF860A9
:10496000B9607A600023FB75FFF788FF0346002BD0
:104970002FD0BB68002B2CD0BB683B610123FB759B
:104980007B68B3F5805F94BF01230023DBB25AB28A
:1049900097F9173013405BB2FB75FA687B681344D4
:1049A00040F6FF72934294BF01230023DBB25AB258
:1049B00097F9173013405BB2FB75FB7D002B08D0D5
:1049C000064B1A68FB6813447A683969184609F07F
:1049D00011FCFB7D18461837BD4680BD1C04002025
:1049E00080B584B000AF786039600023FB73FFF7B7
:1049F00045FF0346002B2AD00123FB733B68B3F528
:104A0000805F94BF01230023DBB25AB297F90F30C5
:104A100013405BB2FB737A683B68134440F6FF7245
:104A2000934294BF01230023DBB25AB297F90F30AF
:104A300013405BB2FB73FB7B002B08D0064B1A685C
:104A40007B6813443A680021184609F0E1FBFB7BC0
:104A500018461037BD4680BD1C04002080B400AF4E
:104A600001231846BD4680BC7047000080B485B065
:104A700000AF0346FB710023FB60FB79042B04D8D5
:104A8000FB79054A52F82330FB60FB68184614375F
:104A9000BD4680BC704700BF9404002080B584B040
:104AA00000AF03460A46FB711346BB710023BB608F
:104AB0000023FB7307F10802FB791146184600F04A
:104AC00019F80346002B0FD0BB79002B02D001232D
:104AD000BB7301E00023BB73BB68BA7B1146184669
:104AE00007F0B8FB0123FB73FB7B18461037BD466C
:104AF00080BD000080B485B000AF03463960FB7113
:104B00000023FB733B68002B2ED0FB79042B2DD8A0
:104B100001A252F823F000BF2D4B0008394B0008CA
:104B2000454B0008514B00085D4B00083B680122D3
:104B30001A600123FB731AE03B6802221A6001230A
:104B4000FB7314E03B6804221A600123FB730EE040
:104B50003B6808221A600123FB7308E03B681022BF
:104B60001A600123FB7302E000BF00E000BFFB7B83
:104B700018461437BD4680BC704700BF80B584B06E
:104B800000AF0346FB710023BB600023FB7307F1FA
:104B90000802FB7911461846FFF7ACFF0346002BCD
:104BA00007D0064B1A6BBB681340002B01D00123C2
:104BB000FB73FB7B18461037BD4680BD00380240B2
:104BC00080B586B000AF0346FB710B46BB71134640
:104BD0007B7100233B610023FB810023FB750023D5
:104BE000BB607B79012B27D8FB791846FFF73EFF86
:104BF000B860BB68002B1FD0BB790F2B1CD8BB79CA
:104C0000012202FA03F33B613B69DB433B61BB6872
:104C10005B68FB813B699AB2FB891340FB817A791F
:104C2000BB7902FA03F39AB2FB891343FB81FA8939
:104C3000BB685A600123FB75FB7D18461837BD46DB
:104C400080BD80B586B000AF03463A60FB710B466D
:104C5000BB7100233B610023FB750023FB603B68B5
:104C6000002B1FD0FB791846FFF700FFF860FB68A8
:104C7000002B17D0BB790F2B14D8BB79012202FA75
:104C800003F33B61FB685B683A6913403B61BB79A6
:104C90003A6922FA03F33B613B69DAB23B681A7066
:104CA0000123FB75FB7D18461837BD4680BD00000B
:104CB00080B483B000AF0346FB71FB79012B04D8AD
:104CC000FB79054A52F8233000E0002318460C37E0
:104CD000BD4680BC704700BF7004002080B586B020
:104CE00000AF0346FB710B46BB7113467B7100237B
:104CF000FB7500233B617B79022B27D8FB79184693
:104D0000FFF7B4FE38613B69002B1FD0BB790F2B36
:104D10001CD8BB795B00032202FA03F3FB60FB683B
:104D2000DB43FB603B69DB68BB60BA68FB68134030
:104D3000BB607A79BB795B0002FA03F3BA6813436C
:104D4000BB603B69BA68DA600123FB75FB7D1846DE
:104D50001837BD4680BD80B586B000AF03463A60C7
:104D6000FB710B46BB710023FB7500233B613B6865
:104D7000002B21D0FB791846FFF778FE38613B699C
:104D8000002B19D0BB790F2B16D8BB795B000322FF
:104D900002FA03F3FB603B69DB68FA681340FB60CF
:104DA000BB795B00FA6822FA03F3FB60FB68DAB2B6
:104DB0003B681A700123FB75FB7D18461837BD460A
:104DC00080BD000080B483B000AF0346FB71FB7967
:104DD000022B04D8FB79054A52F8233000E0002367
:104DE00018460C37BD4680BC704700BF88040020C1
:104DF00080B586B000AF0346FB710B46BB7113460E
:104E00007B710023FB7500233B617B79032B27D843
:104E1000FB791846FFF72AFE38613B69002B1FD04B
:104E2000BB790F2B1CD8BB795B00032202FA03F37A
:104E3000FB60FB68DB43FB603B699B68BB60BA6857
:104E4000FB681340BB607A79BB795B0002FA03F31D
:104E5000BA681343BB603B69BA689A600123FB756B
:104E6000FB7D18461837BD4680BD80B586B000AFC3
:104E700003463A60FB710B46BB710023FB750023B0
:104E80003B613B68002B21D0FB791846FFF7EEFD14
:104E900038613B69002B19D0BB790F2B16D8BB7931
:104EA0005B00032202FA03F3FB603B699B68FA682C
:104EB0001340FB60BB795B00FA6822FA03F3FB60E6
:104EC000FB68DAB23B681A700123FB75FB7D18465C
:104ED0001837BD4680BD000080B483B000AF0346E4
:104EE000FB71FB79032B04D8FB79054A52F8233078
:104EF00000E0002318460C37BD4680BC704700BF59
:104F00007804002080B584B000AF03463A60FB719E
:104F10000B46BB710023FB730023BB603B68002B77
:104F200019D0FB791846FFF7A1FDB860BB68002BCC
:104F300011D0BB790F2B0ED8BB79094A52F8233018
:104F40009BB21946B86806F0FFFF03461A463B6855
:104F50001A700123FB73FB7B18461037BD4680BDDA
:104F6000BC56010880B584B000AF03463A60FB71BF
:104F70000B46BB710023FB730023BB603B68002B17
:104F800019D0FB791846FFF771FDB860BB68002B9C
:104F900011D0BB790F2B0ED8BB79094A52F82330B8
:104FA0009BB21946B86806F0E8FF03461A463B680C
:104FB0001A700123FB73FB7B18461037BD4680BD7A
:104FC000BC56010880B584B000AF0346FB710B46A8
:104FD000BB7113467B710023FB730023BB607B799D
:104FE000012B16D8FB791846FFF740FDB860BB6867
:104FF000002B0ED0BB790F2B0BD8BB79074A52F888
:1050000023309BB27A791946B86806F0CFFF0123A6
:10501000FB73FB7B18461037BD4680BDBC560108AC
:1050200080B586B000AF03463A60FB710B46BB719A
:105030000023FB7500233B613B68002B1DD0FB79EF
:105040001846FFF713FD38613B69002B15D0BB797B
:105050000F2B12D8BB795B00032202FA03F3FB602B
:105060003B691A68FB681A40BB795B0022FA03F3BC
:10507000DAB23B681A700123FB75FB7D18461837BE
:10508000BD4680BD80B483B000AF0346FB71FB79A1
:10509000032B04D8FB79054A52F8233000E00023A3
:1050A00018460C37BD4680BC704700BF6004002026
:1050B00080B586B000AF0346FB710B46BB7113464B
:1050C0007B710023FB7500233B61FB791846FFF7DA
:1050D000CDFC38613B69002B22D0BB790F2B1FD848
:1050E0007B79032B1CD8BB795B00032202FA03F304
:1050F000FB60FB68DB43FB603B691B68BB60BA6815
:10510000FB681340BB607A79BB795B0002FA03F35A
:10511000BA681343BB603B69BA681A600123FB7528
:10512000FB7D18461837BD4680BD80B584B000AF02
:1051300003460A46FB711346BB710023FB73B97922
:10514000FB7900221846FFF7B3FF0346FB73FB7B96
:1051500018461037BD4680BD80B584B000AF034609
:105160000A46FB711346BB710023FB73B979FB79C7
:1051700001221846FFF79CFF0346FB73FB7B184692
:105180001037BD4680BD80B584B000AF03460A46E7
:10519000FB711346BB710023FB73B979FB790322C2
:1051A0001846FFF785FF0346FB73FB7B1846103755
:1051B000BD4680BD80B586B000AF0346FB710B468F
:1051C000BB7113467B710023FB7500233B61FB79A8
:1051D0001846FFF74BFC38613B69002B4ED0BB797A
:1051E0000F2B4BD87B790F2B48D8B979FB7902224A
:1051F0001846FFF75DFF0346FB75FB7D002B3DD096
:10520000BB79072B1BD8BB799B000F2202FA03F353
:10521000FB60FB68DB43FB603B691B6ABB60BA68F1
:10522000FB681340BB607A79BB799B0002FA03F3F9
:10523000BA681343BB603B69BA681A621EE0BB7967
:1052400003F007039B000F2202FA03F3FB60FB68E5
:10525000DB43FB603B695B6ABB60BA68FB68134079
:10526000BB607A79BB7903F007039B0002FA03F372
:10527000BA681343BB603B69BA685A62FB7D184643
:105280001837BD4680BD80B586B000AF03463A6092
:10529000FB710B46BB710023FB7500233B613B6830
:1052A000002B40D0FB791846FFF7E0FB38613B69E3
:1052B000002B38D0BB790F2B35D8BB79072B17D8EB
:1052C000BB799B000F2202FA03F3FB603B691B6A68
:1052D000FA681340FB60BB799B00FA6822FA03F37B
:1052E000FB60FB68DAB23B681A700123FB751AE0B9
:1052F000BB7903F007039B000F2202FA03F3FB6064
:105300003B695B6AFA681340FB60BB7903F00703F3
:105310009B00FA6822FA03F3FB60FB68DAB23B6891
:105320001A700123FB75FB7D18461837BD4680BDFA
:1053300080B483B000AF0346FB71FB790F2B04D818
:10534000FB79054A52F8233000E0044B18460C372D
:10535000BD4680BC704700BF20040020B456010841
:1053600080B586B000AF0346FB710023FB750023B8
:10537000BB75FB79022B5CD80123BB7500F060F88C
:1053800003461A46BB7D1340BB75412006F0F8FF6B
:105390000346012B05D0612006F0F2FF0346012BE6
:1053A00001D1012300E000235AB297F916301340CF
:1053B0005BB2BB75214B1B6F1B0A03F00302FB7929
:1053C0009A420CBF01230023DBB25AB297F9163080
:1053D00013405BB2BB75BB7D002B07D0FB7901216D
:1053E000184600F043F80346FB7522E0FB790021E4
:1053F000184600F03BF80346FB750021002000F042
:10540000EDF9FB7D002B14D007F10C03184600F0DA
:10541000C5F807F10C03184600F0C0F807F10C03BB
:10542000184600F09CF90346FB750121002000F0AE
:10543000D5F9FB7D18461837BD4680BD00380240BF
:1054400080B582B000AF0023FB7100233B603B4678
:105450001946002000F0DEF93B68012B01D1012341
:10546000FB71012318460837BD4680BD80B588B062
:1054700000AF03460A46FB711346BB710023FB775E
:105480000023BB610023FB75FB79022B7FD8012130
:105490004FF0805006F0FCFEBB79002B05D10120B7
:1054A00006F0C8FE002006F0C5FE012006F096FDBD
:1054B000BB79002B3AD1FB79012B1AD1012006F0E0
:1054C0009DFD354BBB6100BF412006F059FF0346EF
:1054D000002B04D1BB695A1EBA61002BF4D1BB6901
:1054E000002B01D10123FB754FF4807006F064FEA0
:1054F00019E0012006F0A2FD274BBB6100BF61202F
:1055000006F03EFF0346002B04D1BB695A1EBA6168
:10551000002BF4D1BB69002B01D10123FB754FF4A3
:10552000007006F049FE012006F074FE4FF47A7315
:10553000BB6100BF06F0F2FF0346002B04D1BB693C
:105540005A1EBA61002BF5D1BB69002B02D1012391
:10555000FB7501E00123FB77BB79002B17D1FB7FA3
:10556000002B14D007F10803184606F07FFF7F23B5
:10557000FB60FF233B610023BB6007F10803184673
:1055800006F038FF0346002B01D00123FB77FB7F99
:1055900018462037BD4680BDA086010080B483B088
:1055A00000AF78607B68002B14D07B6800221A70F3
:1055B0007B6800225A707B6800229A707B68012207
:1055C000DA707B6801221A717B6801225A717B684C
:1055D00000229A7100BF0C37BD4680BC704780B472
:1055E00085B000AF78600023FB737B68002B68D028
:1055F0000123FB737B681B783B2B94BF01230023A3
:10560000DBB25AB297F90F3013405BB2FB737B6881
:105610005B783B2B94BF01230023DBB25AB297F98E
:105620000F3013405BB2FB737B689B78172B94BFE2
:1056300001230023DBB25AB297F90F3013405BB25B
:10564000FB737B681B79002B05D07B681B791F2BB4
:1056500001D8012300E000235AB297F90F3013401C
:105660005BB2FB737B689B79632B94BF01230023A0
:10567000DBB25AB297F90F3013405BB2FB737B6811
:105680005B79002B05D07B685B790C2B01D801235B
:1056900000E000235AB297F90F3013405BB2FB735E
:1056A0007B68DB78002B05D07B68DB78072B01D883
:1056B000012300E000235AB297F90F3013405BB288
:1056C000FB73FB7B18461437BD4680BC704780B522
:1056D00086B000AF78600023FB757B68002B33D069
:1056E000FFF7AEFE0346012B2ED1202007F028F94C
:1056F0000346012B28D107F110031946002006F0BC
:10570000C9FF07F10C031946002007F09BF87868E1
:10571000FFF744FFFA7B7B689A717A7B7B685A714A
:10572000BA7B7B681A713A7B7B68DA703A7C7B685B
:105730009A707A7C7B685A70BA7C7B681A70786839
:10574000FFF74DFF0346FB75FB7D012B02D0786808
:10575000FFF724FFFB7D18461837BD4680BD80B596
:1057600086B000AF78600023FB757B68002B30D0DB
:105770007868FFF734FF0346012B2AD17B681B783A
:10578000BB747B685B787B747B689B783B747B68BD
:10579000DB783B737B681B79BB737B685B797B73BE
:1057A0007B689B79FB73012006F018FC07F110035E
:1057B0001946002006F0ECFE0346FB7507F10C03CA
:1057C0001946002006F0B8FF03461A46FB7D134039
:1057D000FB75FB7D18461837BD4680BD80B584B08B
:1057E00000AF03463960FB710023FB73FB79132B79
:1057F00009D8FB79064A52F823303968184607F071
:105800006FF80123FB73FB7B18461037BD4680BD44
:10581000FC56010880B584B000AF03463960FB71C7
:105820000023FB73FB79132B0ED83B68002B0BD0A6
:10583000FB79084A52F82330184607F06BF8024605
:105840003B681A600123FB73FB7B18461037BD468B
:1058500080BD00BFFC56010880B584B000AF034690
:105860003960FB710023FB73FB79132B0BD8FFF717
:10587000E7FD0346002B06D0FB793968184607F090
:105880002FF80123FB73FB7B18461037BD4680BD04
:1058900080B584B000AF03463960FB710023FB7311
:1058A000FB79132B11D83B68002B0ED0FFF7C8FDF6
:1058B0000346002B09D0FB79184607F02BF8034666
:1058C0001A463B681A600123FB73FB7B18461037AE
:1058D000BD4680BD80B483B000AF0023FB710123BF
:1058E000FB71FB7903F00103FB71FB7903F001030A
:1058F000FB71FB79002B00D1FEE7FB7918460C37D2
:10590000BD4680BC7047000080B485B000AF034640
:105910000A46FB711346BB710023FB73FB79002B16
:105920005DD1FA79324913465B001344DB000B4426
:1059300008331B68B3F5004F2DD0B3F5004F50D896
:10594000B3F5805F03D0B3F5804F24D049E0BB7935
:10595000002B0ED0274B596CFA79254813465B0073
:105960001344DB00034408331B68224A0B4353648F
:105970000EE0204B596CFA791D4813465B00134426
:10598000DB00034408331B68DB431A4A0B405364B3
:105990000123FB7326E0BB79002B0ED0154B196C4D
:1059A000FA79134813465B001344DB0003440833C1
:1059B0001B68104A0B4313640EE00E4B196CFA7906
:1059C0000B4813465B001344DB00034408331B6899
:1059D000DB43084A0B4013640123FB7302E000BF62
:1059E00000E000BFFB7B18461437BD4680BC704703
:1059F000A80400200038024090B585B000AF0346EF
:105A00000A46FB711346BB710023FB73FB79002B25
:105A100040F08483BB79002B00F04682FB79184666
:105A200000F086FB0346002B40F03B820023BB7353
:105A300072E0BB7BC24A1B01134404331B78FA7922
:105A40009A4266D1BB7BBE4A1B0113440C331B78C0
:105A50001846FFF793F80346002B0AD1BB7BB84AE0
:105A60001B0113440C331B78BA7911461846FFF713
:105A700015F8BB7BB24A1B0113440C331878BB7B6F
:105A8000AF4A1B0113440D331B7800221946FFF760
:105A900025F9BB7BAA4A1B0113440C331878BB7B46
:105AA000A74A1B0113440D331B7801221946FFF747
:105AB0009FF9BB7BA24A1B0113440C331878BB7BB4
:105AC0009F4A1B0113440D331B7800221946FFF730
:105AD00077F8BB7B9A4A1B0113440C331878BB7BC5
