:020000040800F2
:1000000000000220F904000829050008D1040008B6
:10001000F30400082F050008ED04000800000000AC
:10002000000000000000000000000000D1470008B0
:100030003505000800000000B1490008F949000832
:100040003D0500083F05000841050008430500087C
:100050004505000847050008490500084B0500084C
:100060004D0500084F05000851050008530500081C
:100070005505000857050008590500085B050008EC
:100080005D0500085F0500086105000863050008BC
:100090006505000867050008690500086B0500088C
:1000A0006D0500086F05000871050008730500085C
:1000B0007505000877050008790500087B0500082C
:1000C0007D0500087F0500088105000883050008FC
:1000D000850500088705000889050008ADF20008BD
:1000E0008D0500088F05000891050008930500089C
:1000F0009505000897050008990500089B0500086C
:100100009D0500089F050008A1050008A30500083B
:10011000A5050008A7050008A9050008AB0500080B
:10012000AD050008AF050008B1050008B3050008DB
:10013000B5050008B7050008B9050008BB050008AB
:10014000BD050008BF050008C1050008C30500087B
:10015000C5050008C7050008C9050008CB0500084B
:10016000CD050008CF050008D1050008D30500081B
:10017000D5050008D7050008D9050008DB050008EB
:10018000DD05000810B5054C237833B9044B13B1D5
:100190000448AFF300800123237010BD2009002024
:1001A000000000006086010808B5034B1BB103493D
:1001B0000348AFF3008008BD0000000024090020C0
:1001C00060860108002A01D002F5807A704700BFDE
:1001D000162031A1ABBE30484168002901D0364A13
:1001E00011600168002901D1324901608168C2684B
:1001F0002A4B002900D00B469D46FFF7E3FF002164
:100200008B460F462648274A121A10F0D3FA16F0EA
:10021000F3FC15202649ABBE25490968002001B42E
:100220000B780131002B15D0202BF9D0222B01D0D7
:10023000272B01D11A0001E02022013902B401303C
:100240000B780131002B05D09A42F9D100224B1EC8
:100250001A70E5E76946020092006A446B469A42CA
:1002600006D9043A14681D6815601C600433F6E76B
:100270006C460725AC43A54604000D000A4800283B
:1002800002D00A48AFF3008010F030F920002900B6
:1002900000F058F810F016F90000002000000220CD
:1002A0002009002080A200200000000000000000C3
:1002B0001001002080A200200C09002080B400AFB3
:1002C000084BD3E90023501C43F10001054BC3E95F
:1002D0000001054B1B680133034A136000BFBD4694
:1002E00080BC7047400900204809002080B584B0D8
:1002F00000AF78600121032001F0B6FD0C2103203E
:1003000002F010F900220C21032002F041F807F15D
:100310000F031A460C21032002F00AF8FB7B002B86
:1003200005D101220C21032002F032F804E0002262
:100330000C21032002F02CF84FF47A7005F096FBA4
:10034000E5E7000080B588B002AF00F049F93B4610
:10035000184606F091FE3B68144A136000F06EF9EF
:1003600000F02EF800F040F80023019302230093E0
:1003700000234FF400720E490E4805F03FFA7861F1
:10038000002301930123009300234FF480720A4954
:100390000A4805F033FA38617B69012B02D13B69C9
:1003A000012B00D0FEE705F095FBFEE718010020C9
:1003B000586D01083D040008606D0108ED02000859
:1003C00080B500AF07F0AAFE01F02EFD00F022FA82
:1003D00000F0A0FE03F0E6FB01F0C1FB0CF0F0FD25
:1003E00002F05EFC00BF80BD80B582B000AF0EF0B1
:1003F0002DFB4FF4E1333B6000233B7100237B7105
:100400000023BB713B46194600200EF07DFD012103
:1004100000200EF029FB0CF01AFD4FF48071064805
:100420000BF000FA0AF014FC07F09CFC07F024FD26
:1004300000BF0837BD4680BD4C09002080B586B09E
:1004400000AF786001200BF097FA012100200AF03C
:10045000A7FC012100200AF04BFC002008F026F93F
:100460000346194600200AF003FC41F28833FB6082
:10047000F86801F0F7FA78610023FB7407F006FDD5
:100480000AF0B0FC0EF084FF00200FF023F80346C2
:100490001A46FB7C93420BD000200FF01BF803465A
:1004A000FB74FB7C002B03D0084900200BF0DAF929
:1004B000786901F003FB0346012B03D1F86801F0D2
:1004C000D1FA78610A2005F0D1FAD7E7686D010802
:1004D00080B483B000AF1EF0040F0CBFEFF30880B0
:1004E000EFF30980816903467B60FEE780B400AFCB
:1004F000FEE780B400AFFEE70649074A074B9A4281
:10050000BEBF51F8040B42F8040BF8E704488047DB
:10051000044800476C8601080000002020090020E4
:10052000E1050008D1010008FEE7FEE7FEE7FEE76F
:10053000FEE7FEE7FEE7FEE7FEE7FEE7FEE7FEE793
:10054000FEE7FEE7FEE7FEE7FEE7FEE7FEE7FEE783
:10055000FEE7FEE7FEE7FEE7FEE7FEE7FEE7FEE773
:10056000FEE7FEE7FEE7FEE7FEE7FEE7FEE7FEE763
:10057000FEE7FEE7FEE7FEE7FEE7FEE7FEE7FEE753
:10058000FEE7FEE7FEE7FEE7FEE7FEE7FEE7FEE743
:10059000FEE7FEE7FEE7FEE7FEE7FEE7FEE7FEE733
:1005A000FEE7FEE7FEE7FEE7FEE7FEE7FEE7FEE723
:1005B000FEE7FEE7FEE7FEE7FEE7FEE7FEE7FEE713
:1005C000FEE7FEE7FEE7FEE7FEE7FEE7FEE7FEE703
:1005D000FEE7FEE7FEE7FEE7FEE7FEE7FEE700BF19
:1005E00080B500AF124B1B68114A43F00103136042
:1005F0000F4B00229A600E4B1B680D4A23F0847348
:1006000023F4803313600A4B0A4A5A60084B1B6874
:10061000074A23F480231360054B0022DA6000F0C0
:100620008DF8054B4FF000629A6000BF80BD00BF9F
:10063000003802401030002400ED00E080B487B0A4
:1006400000AF00233B6100237B610223FB6000239A
:10065000BB6002237B60344B9B6803F00C033B615F
:100660003B69082B11D03B69082B44D83B69002B10
:1006700003D03B69042B04D03DE02C4B2C4A1A607C
:100680003DE02A4B2B4A1A6039E0274B5B689B0DF3
:1006900003F00103BB60244B5B6803F03F037B6006
:1006A000BB68002B0CD0234A7B68B2FBF3F31E4AD5
:1006B00052689209C2F3080202FB03F37B610BE06C
:1006C0001B4A7B68B2FBF3F3174A52689209C2F3E4
:1006D000080202FB03F37B61134B5B681B0C03F006
:1006E000030301335B00FB607A69FB68B2FBF3F341
:1006F0000E4A136003E00D4B0D4A1A6000BF0A4B0F
:100700009B681B0903F00F030B4AD35CDBB23B6110
:10071000064B1A683B6922FA03F3044A136000BFD0
:100720001C37BD4680BC70470038024018010020CD
:100730000024F40040787D011C01002080B483B0C7
:1007400000AF00237B6000233B602F4B1B682E4AC9
:1007500043F4803313602C4B1B6803F400333B607D
:100760007B6801337B603B68002B03D17B68B3F56A
:10077000C06FF0D1244B1B6803F40033002B02D070
:1007800001233B6001E000233B603B68012B36D135
:100790001D4B1D4A9B6893601B4B9B681A4A43F490
:1007A00000439360184B9B68174A43F4A05393602F
:1007B000154B164A5A60144B1B68134A43F080735A
:1007C000136000BF104B1B6803F00073002BF9D0BF
:1007D0000F4B40F203721A600B4B9B680A4A23F0DE
:1007E00003039360084B9B68074A43F0020393603E
:1007F00000BF054B9B6803F00C03082BF9D100BF29
:100800000C37BD4680BC704700380240193C40059B
:10081000003C024080B483B000AF0023FB71012391
:10082000FB71FB7918460C37BD4680BC7047000051
:1008300080B58EB000AF03460A46FB711346BB710C
:10084000002387F83730FB79042B00F22081BB7935
:10085000002B00F0C580FA7990491346DB009B1A03
:100860009B000B4419331B78042B0AD9FA798B4966
:100870001346DB009B1A9B000B441A331B780F2B8B
:100880005DD8FA7985491346DB009B1A9B000B441F
:1008900019331B78184601F057FB0346002B0DD186
:1008A000FA797E491346DB009B1A9B000B441933EF
:1008B0001B78BA791146184601F0D6FAFA797749C9
:1008C0001346DB009B1A9B000B4419331878FA7906
:1008D00072491346DB009B1A9B000B441A331B78AA
:1008E0000122194601F06AFCFA796C491346DB00D3
:1008F0009B1A9B000B4419331878FA796749134601
:10090000DB009B1A9B000B441A331B78002219460C
:1009100001F0CAFBFA7961491346DB009B1A9B0080
:100920000B4419331878FA795C491346DB009B1A9B
:100930009B000B441A331B78194601F00AFE07F19D
:100940001C03184606F04AF907F10C03184606F096
:100950008BF9FA7951491346DB009B1A9B000B4433
:100960000C331B680121184606F0BEFC0023FB6017
:1009700000233B6100237B614FF4A063BB6107F15F
:100980000C03184606F048F90023FB61002387F8A2
:100990002030002387F8213000237B620023FB6294
:1009A000012387F83030FA793C491346DB009B1A63
:1009B0009B000B4404331B6807F11C0211461846C8
:1009C00006F0B8F8FA7935491346DB009B1A9B000C
:1009D0000B44183301221A70012387F8373056E090
:1009E000FB79022B46D0FB79002B43D0FB79012BFE
:1009F00040D0FA7929491346DB009B1A9B000B442F
:100A000019331878FA7925491346DB009B1A9B00A5
:100A10000B441A331B78194601F06DFDFA791F4912
:100A20001346DB009B1A9B000B4419331878FA79A4
:100A30001A491346DB009B1A9B000B441A331B78A0
:100A40000022194601F0BAFBFA7914491346DB007B
:100A50009B1A9B000B4419331878FA790F491346F7
:100A6000DB009B1A9B000B441A331B7802221946A9
:100A700001F01AFBFA7909491346DB009B1A9B0027
:100A80000B44183300221A70012387F8373097F887
:100A9000373018463837BD4680BD00BF2C010020D6
:100AA00080B485B000AF03463960FB710023FB734F
:100AB000FB79042B0FD83B68002B0CD0FA7909493D
:100AC0001346DB009B1A9B000B4418331A783B68D3
:100AD0001A700123FB73FB7B18461437BD4680BC9C
:100AE000704700BF2C010020B0B586B000AF0346B0
:100AF0003A60FB710B46BB710023FB7500233B6121
:100B0000FB79042B00F2CD803B68002B00F0C980FC
:100B10003B68664A1A60FA7965491346DB009B1AFE
:100B20009B000B4418331B78012B40F0BA80FA79F4
:100B30005F491346DB009B1A9B000B440433186883
:100B4000FA795B491346DB009B1A9B000B44083380
:100B50001978FA79564C1346DB009B1A9B00234404
:100B600010331C78FA79524D1346DB009B1A9B0018
:100B70002B4414331B68DBB2224606F0DDF8FB7908
:100B8000002B02D0FB79012B03D1012006F09CF849
:100B900005E0FB79022B02D1012006F0B1F8FA79C9
:100BA00043491346DB009B1A9B000B4404331B682C
:100BB0000121184606F06DF80023FB7330E0FA7946
:100BC0003B491346DB009B1A9B000B4404331B6814
:100BD000184606F07AF900BFFA7935491346DB006A
:100BE0009B1A9B000B4404331B680221184606F035
:100BF00087F90346002BEFD0FA792D491346DB0025
:100C00009B1A9B000B4404331B68184606F06CF9D2
:100C100003461A463B6913443B61FB7B0133FB737C
:100C2000FA7BBB799A42CAD3FA7921491346DB0091
:100C30009B1A9B000B4404331B680021184606F0E6
:100C400028F8FB79002B02D0FB79012B03D100207F
:100C500006F03AF805E0FB79022B02D1002006F0FD
:100C60004FF838690FF0EAF90446BB7918460FF0DF
:100C7000E1F90346194620460FF0E8FA03461A4602
:100C80003B681A60FB79022B09D13B681B68194647
:100C900018460FF01FF903461A463B681A600123F5
:100CA000FB75FB7D18461837BD46B0BD000080C5FA
:100CB0002C01002080B586B000AF0346B9607A6091
:100CC000FB730023FB75FB7B002B3AD17B68002B69
:100CD00037D04FF000033B611C49B8680FF0F8F8BB
:100CE00003463B611A4938690FF0B0FA03463B618D
:100CF000184938690FF0EEF803463B617B683A69A2
:100D00001A607B681B68144918460FF0A7FB03465E
:100D1000002B01D0104B01E07B681B687A681360E0
:100D20007B681B680D4918460FF07AFB0346002BC1
:100D300001D00A4B01E07B681B687A6813600123CD
:100D4000FB75FB7D18461837BD4680BD00003E444C
:100D5000000020400000C8410000FA42000020C20C
:100D600080B483B000AF0346FB71FB79042B08D835
:100D7000FA7907491346DB009B1A9B000B441B685A
:100D800000E0002318460C37BD4680BC704700BF0A
:100D90002C01002080B487B000AF0346B9607A60B0
:100DA000FB730023FB75FB7B042B1DD8BB68002B5A
:100DB0001AD07B68002B17D0FA7B0E491346DB0054
:100DC0009B1A9B000B441A331A787B681A70FA7BC3
:100DD00008491346DB009B1A9B000B4419331A7811
:100DE000BB681A700123FB75FB7D18461C37BD4696
:100DF00080BC70472C01002090B587B000AFF86030
:100E0000B9607A603B600023FB753B68002B31D0F2
:100E1000B968F8680FF004FB0346002B2AD03B6842
:100E20004FF000021A60B968F8680FF017FB03462C
:100E3000002B01D0BB6800E0FB68FB604FF07E51E7
:100E400078680FF047F80346F96818460FF04AF93A
:100E500003461C464FF07E51B8680FF03BF803463E
:100E6000194620460FF0F2F903461A463B681A600D
:100E70000123FB75FB7D18461C37BD4690BD80B530
:100E800082B000AF0346FB71FB79002B0DD001212E
:100E90004FF0805006F00AFA012006F0ADF801216B
:100EA0004FF4802006F0E4F907E0002006F0A4F8F3
:100EB00000214FF4802006F0DBF9012318460837A3
:100EC000BD4680BD80B483B000AF0023FB710D4BE5
:100ED0001B6C03F08053002B0ED00B4B1B681B0ABE
:100EE00003F00103002B07D0064B1B6B03F4802398
:100EF000002B01D00123FB71FB7918460C37BD464E
:100F000080BC7047003802400070004080B586B059
:100F100000AFF860B9607A600023FB75FFF7D2FF7D
:100F20000346002B34D0BB68002B31D0BB683B613B
:100F30000123FB757B68B3F5805F94BF0123002319
:100F4000DBB25AB297F9173013405BB2FB75FA68FF
:100F50007B68134440F6FF72934294BF0123002341
:100F6000DBB25AB297F9173013405BB2FB75FB7DC9
:100F7000002B0DD07A68002138690FF01BFC074B5D
:100F80001A68FB6813447A68194638690FF004FC44
:100F9000FB7D18461837BD4680BD00BFB801002054
:100FA00080B586B000AFF860B9607A600023FB7549
:100FB000FFF788FF0346002B2FD0BB68002B2CD0F7
:100FC000BB683B610123FB757B68B3F5805F94BF11
:100FD00001230023DBB25AB297F9173013405BB2FA
:100FE000FB75FA687B68134440F6FF72934294BF26
:100FF00001230023DBB25AB297F9173013405BB2DA
:10100000FB75FB7D002B08D0064B1A68FB68134468
:101010007A68396918460FF0BFFBFB7D1846183710
:10102000BD4680BDB801002080B584B000AF7860B7
:1010300039600023FB73FFF745FF0346002B2AD0DE
:101040000123FB733B68B3F5805F94BF012300234A
:10105000DBB25AB297F90F3013405BB2FB737A6878
:101060003B68134440F6FF72934294BF0123002370
:10107000DBB25AB297F90F3013405BB2FB73FB7BC4
:10108000002B08D0064B1A687B6813443A6800218D
:1010900018460FF08FFBFB7B18461037BD4680BD0E
:1010A000B801002080B487B000AF0346B9607A6011
:1010B000FB8123E0BB685A1CBA601B781B021AB282
:1010C000B7F90E3053401BB2FB810823FB75B7F90B
:1010D0000E30002B09DAFB895B001BB283F48153CD
:1010E00083F001031BB2FB8102E0FB895B00FB8103
:1010F000FB7D013BFB75FB7D002BE8D17B68013B51
:101100007B607B68002BD5DAFB8918461C37BD460F
:1011100080BC704780B582B000AF0023FB71002314
:101120003B603FE028493A6813469B0013449B000C
:101130000B441B68002B2ED023493A6813469B00B2
:1011400013449B000B4404331B68002B23D01E491F
:101150003A6813469B0013449B000B4404331B68FE
:10116000591E19483A6813469B0013449B000344D8
:1011700004331B680B40002B0AD13B68DBB21846D6
:1011800000F030F90346002B08D10123FB7105E084
:101190000123FB7102E00123FB7100E000BF3B680B
:1011A00001333B603B68012BBCD9FB79002B00D09D
:1011B000FEE7FB79002B0CBF01230023DBB21846AE
:1011C0000837BD4680BD00BFBC01002080B483B09D
:1011D00000AF78607B68DA687B681B69D21A7B682D
:1011E0005B689A4201D1012300E0002318460C37C6
:1011F000BD4680BC704780B483B000AF78607B6828
:10120000DA687B681B699A4201D1012300E0002360
:1012100018460C37BD4680BC7047000080B584B0CE
:1012200000AF03463960FB710023FB730023BB60F2
:101230003B68002B5AD0FB79012B57D8FA7913461B
:101240009B0013449B002C4A13441846FFF7BEFF33
:101250000346002B4AD1FA79274913469B001344D1
:101260009B000B440C331968FA79234813469B0002
:1012700013449B00034404331B68013B1940FA7973
:101280001D4813469B0013449B00034408331B680E
:1012900003FB01F3BB60FA79174913469B00134423
:1012A0009B000B441A68BB68D018FA7912491346A0
:1012B0009B0013449B000B4408331B681A46396893
:1012C0000FF06AFAFA790C4913469B0013449B000D
:1012D0000B440C331B68591C074813469B001344EE
:1012E0009B0003440C3319600123FB73FB7B1846FE
:1012F0001037BD4680BD00BFBC01002080B586B060
:1013000000AF0346B9607A60FB730023FB750023CE
:101310003B61BB68002B5ED0FB7B012B5BD8FA7B6B
:1013200013469B0013449B002D4A13441846FFF7B5
:1013300062FF0346002B4ED1FA7B294913469B00DE
:1013400013449B000B4408331B687A689A4242D1CD
:10135000FA7B234913469B0013449B000B44103334
:101360001968FA7B1E4813469B0013449B000344F4
:1013700004331B68013B1940FA7B194813469B0054
:1013800013449B00034408331B6803FB01F33B61D8
:10139000FA7B134913469B0013449B000B441A68C5
:1013A0003B6913447A681946B8680FF0F5F9FA7B7F
:1013B0000B4913469B0013449B000B4410331B68DE
:1013C000591C074813469B0013449B0003441033E9
:1013D00019600123FB75FB7D18461837BD4680BD9B
:1013E000BC01002080B485B000AF0346FB71002330
:1013F000FB73FB79012B15D8FA790D4913469B0035
:1014000013449B000B44103300221A60FA790849F8
:1014100013469B0013449B000B440C3300221A60BC
:101420000123FB73FB7B18461437BD4680BC704715
:10143000BC01002080B485B000AF0346FB710023DF
:10144000FB73FB79042B0BD8FB79084AD35CDBB226
:10145000002B05D1FB79054A0121D1540123FB73EF
:10146000FB7B18461437BD4680BC70474C120020E9
:1014700080B485B000AF0346FB710023FB73FB799A
:10148000042B0BD8FB79084AD35CDBB2002B05D0C8
:10149000FB79054A0021D1540123FB73FB7B1846DD
:1014A0001437BD4680BC70474C12002080B584B014
:1014B00000AF78600023FB737B68002B06D0082206
:1014C000002178680FF076F90123FB73FB7B184647
:1014D0001037BD4680BD80B485B000AF7860002372
:1014E000FB737B68002B18D07B689A787B685B78ED
:1014F0009A4203D17B6800221A7008E07B680022C0
:10150000DA707B6800225A607B6801221A707B685F
:101510005A787B689A700123FB73FB7B184614375B
:10152000BD4680BC704780B485B000AF78600023B2
:10153000FB737B68002B02D07B681B78FB73FB7B03
:1015400018461437BD4680BC704780B584B000AFE4
:10155000786039600023FB737B68002B0AD07B68BE
:101560000122DA70386800F07DFA02467B685A6022
:101570000123FB73FB7B18461037BD4680BD80B549
:1015800084B000AF78600023FB737B68002B0AD027
:101590007B68DB78002B06D07B685B68184600F020
:1015A0008DFA0346FB73FB7B18461037BD4680BDA2
:1015B00080B485B000AF78600B46FB700023FB73EE
:1015C0007B68002B04D07B68FA785A700123FB7388
:1015D000FB7B18461437BD4680BC704780B584B08D
:1015E00000AF786039600023FB737B68002B1FD04D
:1015F0003B68002B1CD00023BB7300237B737868EF
:1016000010F0B7F80346BB73386810F0B2F8034621
:101610007B737A7BBB7B9A420AD1BB7B1A463968C3
:10162000786810F0AFF80346002B01D10123FB735B
:10163000FB7B18461037BD4680BD80B485B000AF37
:101640007860084611461A4603467B800B467B703D
:1016500013463B700023FB810023BB810023FB72F8
:101660000023FB817BE0FB7A9BB23A8C9A427CD9C7
:101670003B78002B35D0FB897A6813441B783A7E7F
:101680009A422ED1FB89BB8127E0BB897A6813443B
:101690001B783A7E9A421DD1BB8901337A68134484
:1016A0001B787A789A4206D0BB8901337A68134452
:1016B0001B78002B0ED1FA89FB7A9B00F9690B4449
:1016C00079680A441A60FB7A0133FB72BB890133E3
:1016D000FB8106E0BB890133BB81BA897B889A42D2
:1016E000D3D3FB897A6813441B787A789A422ED038
:1016F000FB897A6813441B78002B28D0FB89BB81B7
:1017000020E0BB8901337A6813441B787A789A42C7
:1017100006D0BB8901337A6813441B78002B0ED1A5
:10172000FA89FB7A9B00F9690B4479680A441A60CC
:10173000FB7A0133FB72BB89FB8100BF0CE0BB89E4
:101740000133BB81BA897B889A42DAD304E0FB89F2
:101750007A68134400221A70FB890133FB81FA89ED
:101760007B889A42FFF47FAF00E000BFFB7A184607
:101770001437BD4680BC704780B584B000AF786038
:1017800039600023FB737B68002B1ED011497868F9
:10179000FFF724FF0346002B08D03B68002B02D044
:1017A0003B6801221A700123FB730EE00A49786836
:1017B000FFF714FF0346002B07D03B68002B02D035
:1017C0003B6800221A700123FB73FB7B184610371D
:1017D000BD4680BD2C6E0108346E010880B586B010
:1017E00000AF786039600023FB7500233B617B68A4
:1017F000002B1AD007F10C030A221946786810F062
:10180000E5FE3861FB687A689A420ED03B69002B8E
:101810000BDB3B69FF2B08DC3B68002B03D03B69EB
:10182000DAB23B681A700123FB75FB7D1846183746
:10183000BD4680BD80B588B000AF786039600023B8
:10184000FB7700237B610023BB777B68002B43D0B1
:101850000EF032FE034600221A6007F10C030A2242
:101860001946786810F03AFF78610EF025FE0346BD
:101870001B68222B03D17B69B3F1FF3F2CD00EF004
:101880001BFE03461B68002B02D07B69002B23D074
:10189000FB687A689A421FD00023BB777B68BB61E4
:1018A0000BE0BB691B78FB74FB7C2D2B02D1012361
:1018B000BB7706E0BB690133BB61FB68BA699A423A
:1018C000EFD3BB7F002B07D13B68002B02D03B68D6
:1018D0007A691A600123FB77FB7F18462037BD46E3
:1018E00080BD80B586B000AF786039600023FB759D
:1018F00000233B617B68002B32D00EF0DDFD0346F8
:1019000000221A6007F10C030A221946786810F0C9
:101910005DFE38610EF0D0FD03461B68222B08D116
:101920003B696FF00042934219D03B69B3F1004F1D
:1019300015D00EF0C1FD03461B68002B02D03B6999
:10194000002B0DD0FB687A689A4209D03B68002BC7
:1019500002D03B683A691A600123FB7500E000BFC2
:10196000FB7D18461837BD4680BD80B586B000AFF8
:10197000786039600023FB754FF000033B617B68A2
:10198000002B12D007F10C031946786810F044FDC3
:101990003861FB687A689A4207D03B68002B02D016
:1019A0003B683A691A600123FB75FB7D18461837BE
:1019B000BD4680BD80B588B000AFF8607B600B4647
:1019C0007B8113467B720023FB770023BB610023DE
:1019D0007B61FB68002B2ED07B68002B2BD07B8992
:1019E000002B28D07B7A1946F8680FF0B5FEB86155
:1019F000BB6901337A7A114618460FF0ADFE786163
:101A00007B69002B17D0BB69002B14D07B89FA6847
:101A10001344BA699A420ED27B89FA6813447A69F0
:101A20009A4208D8BB695A1C7B681A607B690022FD
:101A30001A700123FB77FB7F18462037BD4680BD17
:101A400080B400AF024B1B681846BD4680BC70478F
:101A50005412002080B400AF4FF47A731846BD468C
:101A600080BC704780B586B000AF7860FFF7E8FFB4
:101A70003861FFF7EFFF03464FF47A72B2FBF3F3DE
:101A8000FB607A68FB68B2FBF3F37B617B69B3F1BF
:101A9000804F02D94FF080437B613B69DB437A6919
:101AA0009A4203D23A697B69134403E03A697B693D
:101AB0001344013318461837BD4680BD80B584B045
:101AC00000AF7860FFF7BCFFF8607B68B3F1804F30
:101AD00005D8FB68B3F1404F01D3002306E0FA6854
:101AE0007B689A4201D3012300E000231846103797
:101AF000BD4680BD80B584B000AF78607868FFF7E0
:101B0000B1FFF86000BFF868FFF7D8FF0346002B6D
:101B1000F9D000BF00BF1037BD4680BD80B500AF13
:101B2000FFF78EFF0346184680BD80B584B000AF36
:101B30007860FFF785FFB860BA687B689A4204D383
:101B4000BA687B68D31AFB6004E0BA687B68D31A72
:101B5000013BFB60FB6818461037BD4680BD80B571
:101B600000AF002000F0D6F8012000F0D3F80123E8
:101B7000184680BD80B58AB000AFB9607B6003466F
:101B8000FB731346BB81002387F82730FB7B012BB7
:101B900062D8BB68272B5FD87B68002B5CD03B6B7F
:101BA000002B59D0BB89FF2B56D83B6BB3F5807FF8
:101BB00052D8BA893B6B1344013BB3F5807F4BD8B5
:101BC000FB7B284ADB0013441B791846FFF732FCE5
:101BD0000346002B3DD0BB681B02BB61BB89BA69C1
:101BE0001344BB61BA693B6B1344013B7B61002327
:101BF0003B62BB69FB6120E0FA7B1B4913469B00FB
:101C00001344DB02CA18FB69134419787A683B6AEB
:101C100013441B78FA7B0B40D8B2134913469B0040
:101C20001344DB02CA18FB69134402461A703B6A6C
:101C300001333B62FB690133FB61FA697B699A42BC
:101C4000DAD9FB7B074ADB0013441B791846FFF700
:101C50000FFC012387F8273097F8273018462837DC
:101C6000BD4680BDE40100205812002080B586B03A
:101C700000AFB9607A603B600346FB730023FB75DD
:101C8000FB7B012B3CD8BB68B3F5205F38D23B68A7
:101C9000002B35D03B6A002B32D07B68002B2FD035
:101CA000BA687B681344013BB3F5205F28D2FB7B05
:101CB000164ADB0013441B791846FFF7BBFB0346AB
:101CC000002B1BD07A683B6A9A4201D93B6A7B6041
:101CD000FA7B13469B001344DB02BA6813440C4A98
:101CE00013447A68194638680EF056FDFB7B074AA4
:101CF000DB0013441B791846FFF7BAFB0123FB7581
:101D0000FB7D18461837BD4680BD00BFE4010020AA
:101D10005812002080B584B000AF0346FB71002349
:101D2000FB73FB79012B29D8FB79174ADB0013449D
:101D30001B791846FFF77EFB0346002B1ED00023BD
:101D4000BB600DE0FA79114913469B001344DB0296
:101D5000CA18BB681344FF221A70BB680133BB600A
:101D6000BB68B3F5205FEDD3FB79074ADB00134472
:101D70001B791846FFF77CFB0123FB73FB7B18469E
:101D80001037BD4680BD00BFE4010020581200207E
:101D900080B586B000AF03460A46FB711346BB8090
:101DA0000023FB75FB79012B34D8BB88092B31D874
:101DB000FB791B4ADB0013441B791846FFF73AFBFB
:101DC0000346002B26D0BB889B02FB60BB880133F7
:101DD0009B02013BBB60FB683B610DE0FA79114956
:101DE00013469B001344DB02CA183B691344FF22CD
:101DF0001A703B6901333B613A69BB689A42EDD97D
:101E0000FB79074ADB0013441B791846FFF730FBC8
:101E10000123FB75FB7D18461837BD4680BD00BF0A
:101E2000E40100205812002080B400AF01231846BE
:101E3000BD4680BC7047000080B485B000AF03464B
:101E4000FB710023FB60FB79042B04D8FB79054A66
:101E500052F82330FB60FB6818461437BD4680BC3F
:101E6000704700BF6802002080B584B000AF034611
:101E70000A46FB711346BB710023BB600023FB7352
:101E800007F10802FB791146184600F019F80346DD
:101E9000002B0FD0BB79002B02D00123BB7301E0D4
:101EA0000023BB73BB68BA7B1146184605F0E0F906
:101EB0000123FB73FB7B18461037BD4680BD000035
:101EC00080B485B000AF03463960FB710023FB731B
:101ED0003B68002B2ED0FB79042B2DD801A252F8A1
:101EE00023F000BFF91E0008051F0008111F00089D
:101EF0001D1F0008291F00083B6801221A600123EA
:101F0000FB731AE03B6802221A600123FB7314E0A2
:101F10003B6804221A600123FB730EE03B68082231
:101F20001A600123FB7308E03B6810221A6001234A
:101F3000FB7302E000BF00E000BFFB7B18461437D4
:101F4000BD4680BC704700BF80B584B000AF03467B
:101F5000FB710023BB600023FB7307F10802FB79D0
:101F600011461846FFF7ACFF0346002B07D0064B7F
:101F70001A6BBB681340002B01D00123FB73FB7B62
:101F800018461037BD4680BD0038024080B586B087
:101F900000AF0346FB710B46BB7113467B710023F8
:101FA0003B610023FB810023FB750023BB607B7931
:101FB000012B27D8FB791846FFF73EFFB860BB68B6
:101FC000002B1FD0BB790F2B1CD8BB79012202FA42
:101FD00003F33B613B69DB433B61BB685B68FB81AF
:101FE0003B699AB2FB891340FB817A79BB7902FA8B
:101FF00003F39AB2FB891343FB81FA89BB685A60E9
:102000000123FB75FB7D18461837BD4680BD80B5A2
:1020100086B000AF03463A60FB710B46BB710023EC
:102020003B610023FB750023FB603B68002B1FD046
:10203000FB791846FFF700FFF860FB68002B17D00C
:10204000BB790F2B14D8BB79012202FA03F33B6151
:10205000FB685B683A6913403B61BB793A6922FAD5
:1020600003F33B613B69DAB23B681A700123FB75ED
:10207000FB7D18461837BD4680BD000080B483B094
:1020800000AF0346FB71FB79012B04D8FB79054AAD
:1020900052F8233000E0002318460C37BD4680BCC0
:1020A000704700BF4402002080B586B000AF0346F1
:1020B000FB710B46BB7113467B710023FB7500233C
:1020C0003B617B79022B27D8FB791846FFF7B4FEDA
:1020D00038613B69002B1FD0BB790F2B1CD8BB7913
:1020E0005B00032202FA03F3FB60FB68DB43FB6047
:1020F0003B69DB68BB60BA68FB681340BB607A79F8
:10210000BB795B0002FA03F3BA681343BB603B6917
:10211000BA68DA600123FB75FB7D18461837BD46A7
:1021200080BD80B586B000AF03463A60FB710B46B8
:10213000BB710023FB7500233B613B68002B21D062
:10214000FB791846FFF778FE38613B69002B19D000
:10215000BB790F2B16D8BB795B00032202FA03F37D
:10216000FB603B69DB68FA681340FB60BB795B008E
:10217000FA6822FA03F3FB60FB68DAB23B681A7074
:102180000123FB75FB7D18461837BD4680BD000056
:1021900080B483B000AF0346FB71FB79022B04D8F7
:1021A000FB79054A52F8233000E0002318460C372B
:1021B000BD4680BC704700BF5C02002080B586B081
:1021C00000AF0346FB710B46BB7113467B710023C6
:1021D000FB7500233B617B79032B27D8FB791846DD
:1021E000FFF72AFE38613B69002B1FD0BB790F2B0C
:1021F0001CD8BB795B00032202FA03F3FB60FB6887
:10220000DB43FB603B699B68BB60BA68FB681340BB
:10221000BB607A79BB795B0002FA03F3BA681343B7
:10222000BB603B69BA689A600123FB75FB7D184669
:102230001837BD4680BD80B586B000AF03463A6012
:10224000FB710B46BB710023FB7500233B613B68B0
:10225000002B21D0FB791846FFF7EEFD38613B6972
:10226000002B19D0BB790F2B16D8BB795B0003224A
:1022700002FA03F3FB603B699B68FA681340FB605A
:10228000BB795B00FA6822FA03F3FB60FB68DAB201
:102290003B681A700123FB75FB7D18461837BD4655
:1022A00080BD000080B483B000AF0346FB71FB79B2
:1022B000032B04D8FB79054A52F8233000E00023B1
:1022C00018460C37BD4680BC704700BF4C0200204A
:1022D00080B584B000AF03463A60FB710B46BB711A
:1022E0000023FB730023BB603B68002B19D0FB79F4
:1022F0001846FFF7A1FDB860BB68002B11D0BB7971
:102300000F2B0ED8BB79094A52F823309BB21946DD
:10231000B86804F027FE03461A463B681A7001238A
:10232000FB73FB7B18461037BD4680BD686F010804
:1023300080B584B000AF03463A60FB710B46BB71B9
:102340000023FB730023BB603B68002B19D0FB7993
:102350001846FFF771FDB860BB68002B11D0BB7940
:102360000F2B0ED8BB79094A52F823309BB219467D
:10237000B86804F010FE03461A463B681A70012341
:10238000FB73FB7B18461037BD4680BD686F0108A4
:1023900080B584B000AF0346FB710B46BB7113469A
:1023A0007B710023FB730023BB607B79012B16D864
:1023B000FB791846FFF740FDB860BB68002B0ED0D4
:1023C000BB790F2B0BD8BB79074A52F823309BB24D
:1023D0007A791946B86804F0F7FD0123FB73FB7B9B
:1023E00018461037BD4680BD686F010880B586B0BD
:1023F00000AF03463A60FB710B46BB710023FB75CF
:1024000000233B613B68002B1DD0FB791846FFF78A
:1024100013FD38613B69002B15D0BB790F2B12D807
:10242000BB795B00032202FA03F3FB603B691A6885
:10243000FB681A40BB795B0022FA03F3DAB23B680F
:102440001A700123FB75FB7D18461837BD4680BD09
:1024500080B483B000AF0346FB71FB79032B04D833
:10246000FB79054A52F8233000E0002318460C3768
:10247000BD4680BC704700BF3402002080B586B0E6
:1024800000AF0346FB710B46BB7113467B71002303
:10249000FB7500233B61FB791846FFF7CDFC3861E3
:1024A0003B69002B22D0BB790F2B1FD87B79032BE4
:1024B0001CD8BB795B00032202FA03F3FB60FB68C4
:1024C000DB43FB603B691B68BB60BA68FB68134079
:1024D000BB607A79BB795B0002FA03F3BA681343F5
:1024E000BB603B69BA681A600123FB75FB7D184627
:1024F0001837BD4680BD80B584B000AF03460A469C
:10250000FB711346BB710023FB73B979FB79002281
:102510001846FFF7B3FF0346FB73FB7B18461037E3
:10252000BD4680BD80B584B000AF03460A46FB714E
:102530001346BB710023FB73B979FB79012218465E
:10254000FFF79CFF0346FB73FB7B18461037BD4625
:1025500080BD80B584B000AF03460A46FB711346C8
:10256000BB710023FB73B979FB7903221846FFF78F
:1025700085FF0346FB73FB7B18461037BD4680BDC5
:1025800080B586B000AF0346FB710B46BB711346A6
:102590007B710023FB7500233B61FB791846FFF735
:1025A0004BFC38613B69002B4ED0BB790F2B4BD8CD
:1025B0007B790F2B48D8B979FB7902221846FFF7AF
:1025C0005DFF0346FB75FB7D002B3DD0BB79072BE0
:1025D0001BD8BB799B000F2202FA03F3FB60FB6858
:1025E000DB43FB603B691B6ABB60BA68FB68134056
:1025F000BB607A79BB799B0002FA03F3BA68134394
:10260000BB603B69BA681A621EE0BB7903F007033E
:102610009B000F2202FA03F3FB60FB68DB43FB60C5
:102620003B695B6ABB60BA68FB681340BB607A7940
:10263000BB7903F007039B0002FA03F3BA68134364
:10264000BB603B69BA685A62FB7D18461837BD46C5
:1026500080BD80B586B000AF03463A60FB710B4683
:10266000BB710023FB7500233B613B68002B40D00E
:10267000FB791846FFF7E0FB38613B69002B38D047
:10268000BB790F2B35D8BB79072B17D8BB799B00AB
:102690000F2202FA03F3FB603B691B6AFA681340DE
:1026A000FB60BB799B00FA6822FA03F3FB60FB68CE
:1026B000DAB23B681A700123FB751AE0BB7903F0AC
:1026C00007039B000F2202FA03F3FB603B695B6A7E
:1026D000FA681340FB60BB7903F007039B00FA68BC
:1026E00022FA03F3FB60FB68DAB23B681A7001233D
:1026F000FB75FB7D18461837BD4680BD80B483B09E
:1027000000AF0346FB71FB790F2B04D8FB79054A18
:1027100052F8233000E0044B18460C37BD4680BC0D
:10272000704700BFF4010020606F010880B586B0DB
:1027300000AF0346FB710023FB750023BB75FB79DB
:10274000022B5CD80123BB7500F060F803461A46E3
:10275000BB7D1340BB75412004F020FE0346012BD6
:1027600005D0612004F01AFE0346012B01D101239C
:1027700000E000235AB297F9163013405BB2BB75E4
:10278000214B1B6F1B0A03F00302FB799A420CBF1B
:1027900001230023DBB25AB297F9163013405BB223
:1027A000BB75BB7D002B07D0FB790121184600F0DB
:1027B00043F80346FB7522E0FB790021184600F040
:1027C0003BF80346FB750021002000F0EDF9FB7D8E
:1027D000002B14D007F10C03184600F0C5F807F1E0
:1027E0000C03184600F0C0F807F10C03184600F07F
:1027F0009CF90346FB750121002000F0D5F9FB7D13
:1028000018461837BD4680BD0038024080B582B0FA
:1028100000AF0023FB7100233B603B4619460020BC
:1028200000F0DEF93B68012B01D10123FB7101238C
:1028300018460837BD4680BD80B588B000AF034656
:102840000A46FB711346BB710023FB770023BB6173
:102850000023FB75FB79022B7FD801214FF08050BC
:1028600004F024FDBB79002B05D1012004F0F0FC1D
:10287000002004F0EDFC012004F0BEFBBB79002B2E
:102880003AD1FB79012B1AD1012004F0C5FB354B5D
:10289000BB6100BF412004F081FD0346002B04D141
:1028A000BB695A1EBA61002BF4D1BB69002B01D160
:1028B0000123FB754FF4807004F08CFC19E00120BB
:1028C00004F0CAFB274BBB6100BF612004F066FD2A
:1028D0000346002B04D1BB695A1EBA61002BF4D108
:1028E000BB69002B01D10123FB754FF4007004F08C
:1028F00071FC012004F09CFC4FF47A73BB6100BFB3
:1029000004F01AFE0346002B04D1BB695A1EBA61BB
:10291000002BF5D1BB69002B02D10123FB7501E02F
:102920000123FB77BB79002B17D1FB7F002B14D041
:1029300007F10803184604F0A7FD7F23FB60FF237F
:102940003B610023BB6007F10803184604F060FDFB
:102950000346002B01D00123FB77FB7F184620376D
:10296000BD4680BDA086010080B483B000AF786012
:102970007B68002B14D07B6800221A707B680022D1
:102980005A707B6800229A707B680122DA707B683B
:1029900001221A717B6801225A717B6800229A71A8
:1029A00000BF0C37BD4680BC704780B485B000AF17
:1029B00078600023FB737B68002B68D00123FB73D6
:1029C0007B681B783B2B94BF01230023DBB25AB2F8
:1029D00097F90F3013405BB2FB737B685B783B2B3E
:1029E00094BF01230023DBB25AB297F90F30134092
:1029F0005BB2FB737B689B78172B94BF012300238A
:102A0000DBB25AB297F90F3013405BB2FB737B68AD
:102A10001B79002B05D07B681B791F2B01D8012364
:102A200000E000235AB297F90F3013405BB2FB73FA
:102A30007B689B79632B94BF01230023DBB25AB2DE
:102A400097F90F3013405BB2FB737B685B79002B07
:102A500005D07B685B790C2B01D8012300E00023B3
:102A60005AB297F90F3013405BB2FB737B68DB7887
:102A7000002B05D07B68DB78072B01D8012300E011
:102A800000235AB297F90F3013405BB2FB73FB7B04
:102A900018461437BD4680BC704780B586B000AF7D
:102AA00078600023FB757B68002B33D0FFF7AEFE08
:102AB0000346012B2ED1202004F050FF0346012BAA
:102AC00028D107F110031946002004F0F1FD07F1A9
:102AD0000C031946002004F0C3FE7868FFF744FF9A
:102AE000FA7B7B689A717A7B7B685A71BA7B7B68C8
:102AF0001A713A7B7B68DA703A7C7B689A707A7CD0
:102B00007B685A70BA7C7B681A707868FFF74DFF53
:102B10000346FB75FB7D012B02D07868FFF724FF8D
:102B2000FB7D18461837BD4680BD80B586B000AF26
:102B300078600023FB757B68002B30D07868FFF746
:102B400034FF0346012B2AD17B681B78BB747B685A
:102B50005B787B747B689B783B747B68DB783B732A
:102B60007B681B79BB737B685B797B737B689B7924
:102B7000FB73012004F040FA07F11003194600200E
:102B800004F014FD0346FB7507F10C031946002001
:102B900004F0E0FD03461A46FB7D1340FB75FB7D08
:102BA00018461837BD4680BD80B584B000AF0346D7
:102BB0003960FB710023FB73FB79132B09D8FB7978
:102BC000064A52F823303968184604F097FE01236C
:102BD000FB73FB7B18461037BD4680BDA86F01080C
:102BE00080B584B000AF03463960FB710023FB73EE
:102BF000FB79132B0ED83B68002B0BD0FB79084ACE
:102C000052F82330184604F093FE02463B681A60DF
:102C10000123FB73FB7B18461037BD4680BD00BF08
:102C2000A86F010880B584B000AF03463960FB711E
:102C30000023FB73FB79132B0BD8FFF7E7FD03464B
:102C4000002B06D0FB793968184604F057FE0123A3
:102C5000FB73FB7B18461037BD4680BD80B584B042
:102C600000AF03463960FB710023FB73FB79132B24
:102C700011D83B68002B0ED0FFF7C8FD0346002B90
:102C800009D0FB79184604F053FE03461A463B6808
:102C90001A600123FB73FB7B18461037BD4680BDCD
:102CA00080B483B000AF0023FB710123FB71FB797B
:102CB00003F00103FB71FB7903F00103FB71FB7966
:102CC000002B00D1FEE7FB7918460C37BD4680BCCF
:102CD0007047000080B485B000AF03460A46FB7120
:102CE0001346BB710023FB73FB79002B5DD1FA798E
:102CF000324913465B001344DB000B4408331B6866
:102D0000B3F5004F2DD0B3F5004F50D8B3F5805F29
:102D100003D0B3F5804F24D049E0BB79002B0ED00F
:102D2000274B596CFA79254813465B001344DB00A6
:102D3000034408331B68224A0B4353640EE0204BC4
:102D4000596CFA791D4813465B001344DB000344B9
:102D500008331B68DB431A4A0B4053640123FB739F
:102D600026E0BB79002B0ED0154B196CFA7913486D
:102D700013465B001344DB00034408331B68104A0E
:102D80000B4313640EE00E4B196CFA790B48134693
:102D90005B001344DB00034408331B68DB43084A31
:102DA0000B4013640123FB7302E000BF00E000BF8F
:102DB000FB7B18461437BD4680BC70477C02002060
:102DC0000038024090B585B000AF03460A46FB715B
:102DD0001346BB710023FB73FB79002B40F0848307
:102DE000BB79002B00F04682FB79184600F086FB89
:102DF0000346002B40F03B820023BB7372E0BB7B99
:102E0000C24A1B01134404331B78FA799A4266D1F3
:102E1000BB7BBE4A1B0113440C331B781846FFF7DB
:102E200093F80346002B0AD1BB7BB84A1B0113441D
:102E30000C331B78BA7911461846FFF715F8BB7B9F
:102E4000B24A1B0113440C331878BB7BAF4A1B01F9
:102E500013440D331B7800221946FFF725F9BB7B7D
:102E6000AA4A1B0113440C331878BB7BA74A1B01E9
:102E700013440D331B7801221946FFF79FF9BB7BE2
:102E8000A24A1B0113440C331878BB7B9F4A1B01D9
:102E900013440D331B7800221946FFF777F8BB7BEC
:102EA0009A4A1B0113440C331878BB7B974A1B01C9
:102EB00013440D331B7801221946FFF769FABB7BD7
:102EC000924A1B0113440C331A78BB7B8F491B01B8
:102ED0000B440D331B7819461046FFF723FBBB7BD1
:102EE0000133BB73BB7B002B89D0FA798849134629
:102EF0005B001344DB000B4412331B781846FFF7CA
:102F000023F80346002B0DD1FA79814913465B0063
:102F10001344DB000B4412331B78BA791146184670
:102F2000FEF7A2FFFA797A4913465B001344DB00EF
:102F30000B4412331878FA79754913465B00134431
:102F4000DB000B4413331B7801221946FFF736F9D7
:102F5000FA796F4913465B001344DB000B441233CC
:102F60001878FA796A4913465B001344DB000B4476
:102F700013331B7800221946FFF796F8FA79644953
:102F800013465B001344DB000B4412331878FA79C4
:102F90005F4913465B001344DB000B4413331B787B
:102FA00000221946FEF7F2FFFA79594913465B00F1
:102FB0001344DB000B4412331878FA795449134652
:102FC0005B001344DB000B4413331B781946FFF7F7
:102FD000A9FAFA794E4913465B001344DB000B440F
:102FE00012331878FA794A4913465B001344DB0020
:102FF0000B4413331B7801221946FFF7C9F9FA79FC
:10300000434913465B001344DB000B44123318782A
:10301000FA793F4913465B001344DB000B4413333A
:103020001978FA793A4C13465B001344DB002344C9
:1030300014331B781A46FFF7A3FAFA79344913467A
:103040005B001344DB000B440C331B781846FEF77F
:103050007BFF0346002B0DD1FA792D4913465B0007
:103060001344DB000B440C331B78BA791146184625
:10307000FEF7FAFEFA79264913465B001344DB009B
:103080000B440C331878FA79214913465B0013443A
:10309000DB000B440D331B7801221946FFF78EF835
:1030A000FA791B4913465B001344DB000B440C33D5
:1030B0001878FA79164913465B001344DB000B4479
:1030C0000D331B7800221946FEF7EEFFFA791049FE
:1030D00013465B001344DB000B440C331878FA7979
:1030E0000B4913465B001344DB000B440D331B7884
:1030F00000221946FEF74AFFFA79054913465B009C
:103100001344DB000B440C3304E000BF1C700108C7
:103110007C0200201878FA795C4913465B0013445E
:10312000DB000B440D331B781946FFF7FBF9FA79E6
:10313000564913465B001344DB000B440C331878EC
:10314000FA79524913465B001344DB000B440D33FC
:103150001978FA794D4C13465B001344DB00234485
:103160000E331B781A46FFF70BFAFA7947491346D4
:103170005B001344DB000B440F331B781846FEF74B
:10318000E3FE0346002B0DD1FA79404913465B005C
:103190001344DB000B440F331B78BA7911461846F1
:1031A000FEF762FEFA79394913465B001344DB00EF
:1031B0000B440F331878FA79344913465B001344F3
:1031C000DB000B4410331B7801221946FEF7F6FF93
:1031D000FA792E4913465B001344DB000B440F338E
:1031E0001878FA79294913465B001344DB000B4435
:1031F00010331B7800221946FEF756FFFA7923494F
:1032000013465B001344DB000B440F331878FA7944
:103210001E4913465B001344DB000B4410331B783C
:103220001946FFF768F9FA79184913465B00134409
:10323000DB000B440F331878FA79144913465B000E
:103240001344DB000B4410331978FA790F4C134602
:103250005B001344DB00234411331B781A46FFF74D
:103260008FF9BA79FB7911461846FFF733FD012330
:10327000FB7339E1FB79184600F040F90346012B56
:1032800040F0308100237B731EE000BF7C020020F1
:103290007B7B984A1B01134404331B78FA799A42CA
:1032A0000FD17B7B934A1B0113440C3318787B7B33
:1032B000904A1B0113440D331B7800221946FFF777
:1032C00067F87B7B01337B737B7B002BE0D0BA7983
:1032D000FB7911461846FFF7FDFCFA79864913463B
:1032E0005B001344DB000B440F331878FA798249F2
:1032F00013465B001344DB000B4410331B780022A1
:103300001946FEF75BFFFA797B4913465B001344CD
:10331000DB000B440F331878FA79774913465B00CA
:103320001344DB000B4410331B7802221946FEF7CE
:10333000BBFEFA79704913465B001344DB000B4473
:103340000F331878FA796C4913465B001344DB009D
:103350000B4410331B781946FFF7CDF8FA7966490C
:1033600013465B001344DB000B440C331878FA79E6
:10337000614913465B001344DB000B440D331B789B
:1033800000221946FEF71AFFFA795B4913465B00E3
:103390001344DB000B440C331878FA795649134672
:1033A0005B001344DB000B440D331B7802221946EB
:1033B000FEF77AFEFA79504913465B001344DB00AE
:1033C0000B440C331878FA794B4913465B001344CD
:1033D000DB000B440D331B781946FFF78CF8FA79A4
:1033E000454913465B001344DB000B441233187845
:1033F000FA79414913465B001344DB000B44133355
:103400001B7800221946FEF7D9FEFA793A4913468D
:103410005B001344DB000B4412331878FA79364909
:1034200013465B001344DB000B4413331B7802226A
:103430001946FEF739FEFA792F4913465B0013440B
:10344000DB000B4412331878FA792B4913465B00E2
:103450001344DB000B4413331B781946FFF74BF87A
:1034600000233B733BE03B7B224A1B0113440433A4
:103470001B78FA799A422FD13B7B1E4A1B011344D9
:103480000C3318783B7B1B4A1B0113440D331B780C
:1034900000221946FEF792FE3B7B164A1B0113449D
:1034A0000C3318783B7B134A1B0113440D331B78F4
:1034B00002221946FEF7F8FD3B7B0E4A1B0113441E
:1034C0000C331A783B7B0B491B010B440D331B78E3
:1034D00019461046FFF70FF83B7B01333B733B7BEC
:1034E000002BC0D00123FB73FB7B18461437BD466D
:1034F00090BD00BF1C7001087C02002080B485B024
:1035000000AF0346FB710023FB73FB79002B3AD11C
:10351000FA79214913465B001344DB000B4408335E
:103520001B68B3F5004F08D0B3F5004F2DD8B3F5A5
:10353000805F15D0B3F5804F27D1184B196CFA79FD
:10354000154813465B001344DB00034408331B6833
:103550000B40002B14BF01230023DBB2FB7315E0EB
:103560000E4B596CFA790C4813465B001344DB0090
:10357000034408331B680B40002B14BF01230023B6
:10358000DBB2FB7302E000BF00E000BFFB7B18462C
:103590001437BD4680BC70477C02002000380240D2
:1035A00080B485B000AF0346FB710023FB73FB7949
:1035B000002B09D1FA79074913465B001344DB005D
:1035C0000B4415331B78FB73FB7B18461437BD4641
:1035D00080BC70477C02002080B485B000AF0346F9
:1035E0003960FB710023FB73FB79002B0DD13B6825
:1035F000002B0AD0FA79084913465B001344DB001C
:103600000B4416331A783B681A70FB7B1846143744
:10361000BD4680BC704700BF7C02002080B584B0EE
:1036200000AF0346FB710023FB73FB79002B65D1D0
:10363000FB79354A1B01134404331B781946334A7E
:103640000B465B000B44DB00134415331B78002B47
:1036500040D1FB792C4A1B01134404331B781946D3
:103660002A4A0B465B000B44DB001344153301224E
:103670001A70FB79244A1B01134404331B78194642
:10368000224A0B465B000B44DB0013441633FA79E5
:103690001A70FB791C4A1B01134404331B78FA7916
:1036A0001146184600F0B4F8FB79174A1B01134481
:1036B00004331B781946154A0B465B000B44DB00AC
:1036C000134404331B680121184604F040FA012317
:1036D000FB7313E0FB790C4A1B01134404331B7882
:1036E00019460A4A0B465B000B44DB0013441633B1
:1036F0001B78FA799A4201D10123FB73FB7B1846B0
:103700001037BD4680BD00BF1C7001087C02002040
:1037100080B584B000AF0346FB710023FB73FB79D7
:10372000002B6BD1FB79384A1B01134404331B78FF
:103730001946364A0B465B000B44DB001344153335
:103740001B78012B47D1FB792F4A1B01134404330B
:103750001B7819462D4A0B465B000B44DB001344D3
:1037600016331B78FA799A4248D1FB79264A1B0115
:10377000134404331B781946244A0B465B000B4460
:10378000DB001344153300221A70FB791E4A1B011B
:10379000134404331B7819461C4A0B465B000B4448
:1037A000DB001344163301221A70FB79164A1B0101
:1037B000134404331B781946144A0B465B000B4430
:1037C000DB00134404331B680021184604F0BFF9E2
:1037D0000123FB7312E0FB790B4A1B0113440433F2
:1037E0001B781946094A0B465B000B44DB00134467
:1037F00015331B78002B01D10123FB73FB7B18468B
:103800001037BD4680BD00BF1C7001087C0200203F
:1038100080B588B000AF03460A46FB711346BB7102
:103820000023FB770023BB77FB79002B62D1BB79A8
:10383000002B5FD1FB791846FFF760FE0346002B93
:1038400058D007F10C03184604F05DF9FA792C49B9
:1038500013465B001344DB000B4404331B6818461B
:1038600004F0D4F8BB79274A1B01134408331B68C2
:103870001B88FB81BB79234A1B01134408331B6857
:103880005B883B82BB791F4A1B01134408331B68CA
:103890009B887B82BB791B4A1B01134408331B683E
:1038A000DB88BB82BB79174A1B01134408331B68B2
:1038B0001B893B83BB79134A1B01134408331B68E4
:1038C0005B897B830023BB814FF40073FB82012360
:1038D000BB83FA790A4913465B001344DB000B44AF
:1038E00004331B6807F10C021146184604F0C8F8AF
:1038F0000123FB77FB7F18462037BD4680BD00BF04
:103900007C0200201C70010880B584B000AF034623
:103910000A46FB711346BB710023FB73FB791D4AFA
:103920001B01134404331B7807F10E02114618469D
:10393000FFF752FEBB7BFA799A4225D1BB79002B67
:1039400010D0FB79134A1B0113440C331878FB7910
:10395000104A1B0113440D331B7800221946FEF751
:1039600017FD0FE0FB790B4A1B0113440C33187849
:10397000FB79084A1B0113440D331B7801221946B9
:10398000FEF706FD0123FB73FB7B18461037BD468F
:1039900080BD00BF1C70010880B584B000AF034635
:1039A000FB710023FB730023BB73FB79002B18D141
:1039B000FB790E4A1B0113440C331878FB790B4A30
:1039C0001B0113440D331B7807F10E021946FEF755
:1039D000AFFCBB7B002B02D10123FB7301E0002372
:1039E000FB73FB7B18461037BD4680BD1C70010879
:1039F00080B588B000AFB9607A601A460346FB73A1
:103A00001346BB810023FB770123FB7600237B61F8
:103A1000FB7B484A1B01134404331B78FB7607F1F8
:103A20001202FB7E11461846FFF7D6FDBB7CFA7BDF
:103A30009A427AD1BB68002B02D17B68002B74D0EC
:103A4000BB89002B71D00A20FEF70CF8786107E0E3
:103A50007869FEF733F80346012B01D1002365E0B6
:103A6000FA7E354913465B001344DB000B440433F4
:103A70001B688021184604F089F80346012BE7D023
:103A80000023BB834BE00023BB770023FB74BB68A0
:103A9000002B04D0BB8BBA6813441B78BB77FA7E2B
:103AA000254913465B001344DB000B4404331B68B9
:103AB000BA7F92B29A810A20FDF7D4FF786107E0BD
:103AC0007869FDF7FBFF0346012B01D100232DE0B0
:103AD000FA7E194913465B001344DB000B440433A0
:103AE0001B680121184604F051F80346002BE7D06B
:103AF000FA7E114913465B001344DB000B44043388
:103B00001B689B899BB2FB747B68002B04D0BB8B2A
:103B10007A681344FA7C1A70BB8B0133BB83BA8B6F
:103B2000BB899A42AFD30123FB77FB7F184620372E
:103B3000BD4680BD1C7001087C02002080B483B0AB
:103B400000AF0346FB71FB79002B08D1FA790749D6
:103B500013465B001344DB000B441B6800E0044B7E
:103B600018460C37BD4680BC704700BF7C02002061
:103B70000870010880B483B000AF0346FB71FB7985
:103B8000002B05D1FB79054A1B0113441B6800E09B
:103B9000034B18460C37BD4680BC70471C700108AB
:103BA0000870010880B483B000AF0023FB71FB797B
:103BB00018460C37BD4680BC7047000080B485B005
:103BC00000AF03460A46FB711346BB710023FB732B
:103BD000FB79002B6DD1FA793A4913465B00134407
:103BE0009B000B4408331B68B3F5801F19D0B3F555
:103BF000801F60D8B3F5002F13D0B3F5002F5AD82B
:103C0000B3F5802F0DD0B3F5802F54D8B3F5003F16
:103C100007D0B3F5003F4ED8102B26D0202B24D050
:103C200049E0BB79002B0ED0274B196CFA79254857
:103C300013465B0013449B00034408331B68224A6D
:103C40000B4313640EE0204B196CFA791D481346A0
:103C50005B0013449B00034408331B68DB431A4A90
:103C60000B4013640123FB7326E0BB79002B0ED0BD
:103C7000154B596CFA79134813465B0013449B00AB
:103C8000034408331B68104A0B4353640EE00E4B89
:103C9000596CFA790B4813465B0013449B000344AC
:103CA00008331B68DB43084A0B4053640123FB7352
:103CB00002E000BF00E000BFFB7B18461437BD46A2
:103CC00080BC7047C80200200038024080B485B034
:103CD00000AF0346FB710023FB73FB79002B4BD134
:103CE000FA792A4913465B0013449B000B440833BE
:103CF0001B68B3F5801F19D0B3F5801F3ED8B3F50C
:103D0000002F13D0B3F5002F38D8B3F5802F0DD086
:103D1000B3F5802F32D8B3F5003F07D0B3F5003F9D
:103D20002CD8102B15D0202B13D027E0184B196C52
:103D3000FA79164813465B0013449B00034408338A
:103D40001B680B40002B14BF01230023DBB2FB7365
:103D500015E00F4B596CFA790C4813465B0013447D
:103D60009B00034408331B680B40002B14BF012346
:103D70000023DBB2FB7302E000BF00E000BFFB7B6F
:103D800018461437BD4680BC704700BFC8020020EB
:103D90000038024080B487B000AF03460A46FB718A
:103DA0001346BB710023FB7500233B610023FB60BE
:103DB000FB79002B30D1BB79012B02D0BB79002BD2
:103DC0002AD14FF400533B613B69DB433B61FA79F5
:103DD000144913465B0013449B000B4404331B68D7
:103DE0009B899BB2FB60FA683B691340FB60BB791F
:103DF0005B033B61FA683B691343FB60FA7909494D
:103E000013465B0013449B000B4404331B68FA68A1
:103E100092B29A810123FB75FB7D18461C37BD4683
:103E200080BC7047C802002080B485B000AF034654
:103E3000FB710023FB73FB79002B12D1FA790C493B
:103E400013465B0013449B000B4404331B689B899F
:103E50009BB203F40053002BCCBF01230023DBB241
:103E6000FB73FB7B18461437BD4680BC704700BF10
:103E7000C8020020B0B58CB000AF03463960FB71BA
:103E8000002387F82F304FF000037B6200233B6252
:103E90000023FB610023BB610023BB62FB79002B85
:103EA0006BD107F10803184603F0E6F8FA793649B2
:103EB00013465B0013449B000B4404331B68334AD6
:103EC00093420BD0FA79304913465B0013449B00B0
:103ED0000B4404331B682E4A934202D17B69BB62B8
:103EE00001E03B69BB62B86A0BF0F2FC04460D4688
:103EF00038680BF0EDFC4FF00002264B0BF062FD32
:103F000002460B46204629460BF086FE02460B462B
:103F1000104619460BF088FF03467B62786A0CF066
:103F2000A7FA03463B62386A0CF084F80346194648
:103F3000786A0BF0CDFF03464FF0834118460CF032
:103F4000D1F8034618460CF093FA0346FB613B6A2E
:103F50001B013B623A6AFB691343BB61FA790A4968
:103F600013465B0013449B000B4404331B68BA697F
:103F700092B21A81012387F82F3097F82F30184614
:103F80003037BD46B0BD00BFC80200200010014060
:103F90000014014000003040B0B58CB000AF0346C3
:103FA0003960FB71002387F82F304FF000037B62EC
:103FB00000233B620023FB610023BB610023BB6243
:103FC000FB79002B7AD13B68002B77D007F10803EF
:103FD000184603F051F8FA793B4913465B00134445
:103FE0009B000B4404331B68384A93420BD0FA7988
:103FF000354913465B0013449B000B4404331B6894
:10400000334A934202D17B69BB6201E03B69BB62E8
:10401000FA792D4913465B0013449B000B4404338B
:104020001B681B899BB2BB61BA694FF6F0731340E2
:104030003B62BB6903F00F03FB613B6A1B09184637
:104040000BF0F8FF03467B62786A0BF063FC0446D2
:104050000D46F8690BF03CFC4FF000021D4B0BF0D5
:10406000DBFD02460B46204629460BF0F5FA0246D8
:104070000B46104619460BF0D7FE03467B62B86A22
:104080000BF026FC04460D46786A0BF043FC4FF01B
:104090000002104B0BF096FC02460B4620462946C8
:1040A0000BF0BAFD02460B46104619460BF0BCFE5B
:1040B00002463B681A60012387F82F3097F82F30AB
:1040C00018463037BD46B0BDC80200200010014080
:1040D000001401400000304080B487B000AF0346B8
:1040E0000A46FB711346BB710023FB7400237B61FE
:1040F0000023FB60FB79002B39D1BB79022B36D82A
:104100004FF4C0637B617B69DB437B61FA791B49B8
:1041100013465B0013449B000B4404331B689B89CC
:104120009BB2FB60FA687B691340FB60BB79002B94
:1041300001D100237B61BB79022B02D14FF4806354
:104140007B61BB79012B02D14FF4C0637B61FA68BC
:104150007B691343FB60FA79084913465B001344FB
:104160009B000B4404331B68FA6892B29A81FB7C73
:1041700018461C37BD4680BC704700BFC8020020EF
:1041800080B485B000AF03463960FB710023FB7338
:10419000FB79002B2DD13B68002B2AD0FA791849E6
:1041A00013465B0013449B000B4404331B689B893C
:1041B0009BB203F48063002B16DDFA791049134695
:1041C0005B0013449B000B4404331B689B899BB228
:1041D00003F40073002B03D13B6802221A7006E03F
:1041E0003B6801221A7002E03B6800221A7001232A
:1041F000FB73FB7B18461437BD4680BC704700BF7D
:10420000C802002080B487B000AF03460A46FB71A5
:104210001346BB710023FB7500233B610023FB6049
:10422000FB79002B2DD1BB79032B2AD84FF44053B7
:104230003B613B69DB433B61FA79154913465B00FF
:1042400013449B000B4404331B681B8A9BB2FB6026
:10425000FA683B691340FB60BB791B033B61FA685A
:104260003B691343FB60FA79094913465B00134429
:104270009B000B4404331B68FA6892B21A82012334
:10428000FB75FB7D18461C37BD4680BC704700BFE0
:10429000C802002080B485B000AF03463960FB71CE
:1042A0000023FB730023BB60FB79002B19D13B6813
:1042B000002B16D0FA790E4913465B0013449B007D
:1042C0000B4404331B681B8A9BB203F44053BB604E
:1042D000BB681B0BBB60BB68DAB23B681A7001237A
:1042E000FB73FB7B18461437BD4680BC704700BF8C
:1042F000C802002080B487B000AF03460A46FB71B5
:104300001346BB710023FB7500233B610023FB6058
:10431000FB79002B2DD1BB79012B2AD84FF4805388
:104320003B613B69DB433B61FA79154913465B000E
:1043300013449B000B4404331B689B899BB2FB60B6
:10434000FA683B691340FB60BB791B033B61FA6869
:104350003B691343FB60FA79094913465B00134438
:104360009B000B4404331B68FA6892B29A810123C4
:10437000FB75FB7D18461C37BD4680BC704700BFEF
:10438000C802002080B485B000AF03463960FB71DD
:104390000023FB730023BB60FB79002B19D13B6822
:1043A000002B16D0FA790E4913465B0013449B008C
:1043B0000B4404331B689B899BB203F48053BB609E
:1043C000BB681B0BBB60BB68DAB23B681A70012389
:1043D000FB73FB7B18461437BD4680BC704700BF9B
:1043E000C802002080B487B000AF03460A46FB71C4
:1043F0001346BB710023FB7500233B610023FB6068
:10440000FB79002B2CD1BB79032B29D80C233B61E2
:104410003B69DB433B61FA79144913465B00134463
:104420009B000B4404331B689B899BB2FB60FA68BA
:104430003B691340FB60BB799B003B61FA683B69B9
:104440001343FB60FA79094913465B0013449B0050
:104450000B4404331B68FA6892B29A810123FB75FE
:10446000FB7D18461C37BD4680BC7047C802002043
:1044700080B485B000AF03463960FB710023FB7345
:104480000023BB60FB79002B19D13B68002B16D0B1
:10449000FA790E4913465B0013449B000B44043326
:1044A0001B689B899BB203F00C03BB60BB689B0835
:1044B000BB60BB68DAB23B681A700123FB73FB7BFD
:1044C00018461437BD4680BC704700BFC8020020A4
:1044D00080B483B000AF0346FB71FB79032B04D893
:1044E000FB79054A52F8233000E0002318460C37C8
:1044F000BD4680BC704700BF9402002080B483B0EA
:1045000000AF0346FB71FB79012B04D8FB79054A08
:1045100052F8233000E0002318460C37BD4680BC1B
:10452000704700BFA402002080B483B000AF0346F0
:10453000FB71FB79032B04D8FB79054A52F8233031
:1045400000E0002318460C37BD4680BC704700BF12
:10455000AC02002080B483B000AF0346FB71FB794E
:10456000022B04D8FB79054A52F8233000E00023DF
:1045700018460C37BD4680BC704700BFBC02002007
:1045800080B483B000AF0346FB71FB79002B08D1E8
:10459000FA79074913465B0013449B000B441B68E0
:1045A00000E0002318460C37BD4680BC704700BFB2
:1045B000C802002080B483B000AF78607B6803F14C
:1045C00008027B685A607B684FF0FF329A607B6814
:1045D00003F108027B68DA607B6803F108027B68FC
:1045E0001A617B6800221A6000BF0C37BD4680BC90
:1045F000704780B483B000AF78607B6800221A6196
:1046000000BF0C37BD4680BC704780B485B000AF9A
:10461000786039607B685B68FB603B68FA685A6069
:10462000FB689A683B689A60FB689B683A685A60C6
:10463000FB683A689A603B687A681A617B681B6815
:104640005A1C7B681A6000BF1437BD4680BC704797
:1046500080B485B000AF786039603B681B68BB6090
:10466000BB68B3F1FF3F03D17B681B69FB600CE0C3
:104670007B680833FB6002E0FB685B68FB60FB68FB
:104680005B681B68BA689A42F6D2FB685A683B6856
:104690005A603B685B683A689A603B68FA689A605F
:1046A000FB683A685A603B687A681A617B681B68E5
:1046B0005A1C7B681A6000BF1437BD4680BC704727
:1046C00080B485B000AF78607B681B69FB607B6855
:1046D0005B687A6892689A607B689B687A685268BF
:1046E0005A60FB685B687A689A4203D17B689A6873
:1046F000FB685A607B6800221A61FB681B685A1EBF
:10470000FB681A60FB681B6818461437BD4680BCFE
:104710007047000080B485B000AFF860B9607A607F
:10472000FB68043BFB60FB684FF080721A60FB681B
:10473000043BFB60BB6823F00102FB681A60FB6866
:10474000043BFB60084AFB681A60FB68143BFB6093
:104750007A68FB681A60FB68203BFB60FB681846C0
:104760001437BD4680BC70476D47000880B485B0E3
:1047700000AF00237B60124B1B68B3F1FF3F0AD0F0
:104780004FF0500383F31188BFF36F8FBFF34F8F48
:10479000FB6000BFFEE74FF0500383F31188BFF3C7
:1047A0006F8FBFF34F8FBB6000BF00BF7B68002BD4
:1047B000FCD000BF00BF1437BD4680BC704700BFAF
:1047C000D4020020000000000000000000000000F3
:1047D000074B19680868B0E8F00F80F30988BFF349
:1047E0006F8F4FF0000080F311884EF00D0E704770
:1047F000789E002000BF00BF06480068006880F374
:10480000088862B661B6BFF34F8FBFF36F8F00DFCA
:1048100000BF00BF08ED00E080B584B000AF324BB0
:10482000FB60FB681B78DBB27B60FB68FF221A70C1
:10483000FB681B78DBB2FB70FB78DBB203F0500344
:10484000DAB22A4B1A702A4B07221A6009E0284B69
:104850001B68013B264A1360FB78DBB25B00DBB2CE
:10486000FB70FB78DBB203F08003802BEFD0204B92
:104870001B68C3F10703042B0AD04FF0500383F3E6
:104880001188BFF36F8FBFF34F8FBB6000BFFEE790
:10489000174B1B681B02164A1360154B1B6803F469
:1048A000E063134A13607B68DAB2FB681A70114B3D
:1048B0001B68104A43F4700313600E4B1B680D4ACB
:1048C00043F07043136000F0B9F80B4B00221A60FC
:1048D000FFF792FF01F0CCFAFFF748FF00231846DC
:1048E0001037BD4680BD00BF00E400E058620020E4
:1048F0005C62002020ED00E0D402002080B483B090
:1049000000AF4FF0500383F31188BFF36F8FBFF3F5
:104910004F8F7B6000BF0F4B1B6801330D4A136044
:104920000C4B1B68012B0FD10B4B1B68DBB2002B10
:104930000AD04FF0500383F31188BFF36F8FBFF39A
:104940004F8F3B6000BFFEE700BF0C37BD4680BC09
:10495000704700BFD402002004ED00E080B483B0B3
:1049600000AF114B1B68002B0AD14FF0500383F3AB
:104970001188BFF36F8FBFF34F8F7B6000BFFEE7DF
:10498000094B1B68013B084A1360074B1B68002B4F
:1049900005D100233B603B6883F3118800BF00BF53
:1049A0000C37BD4680BC7047D402002000000000D8
:1049B000EFF30980BFF36F8F0D4B1A6820E9F00FFA
:1049C00010602DE908404FF0500080F3118801F08D
:1049D0004FFA4FF0000080F31188BDE808401968D5
:1049E0000868B0E8F00F80F30988BFF36F8F704755
:1049F000789E002000BF00BF80B582B000AF4FF0AE
:104A0000500383F31188BFF36F8FBFF34F8F7B6029
:104A100000BF01F067F90346002B03D0064B4FF0AF
:104A200080521A6000233B603B6883F3118800BF0B
:104A300000BF0837BD4680BD04ED00E080B400AF84
:104A40000A4B00221A600A4B00221A60094B1B68AD
:104A5000094AA2FB03239B09084A013B1360034B4D
:104A600007221A6000BFBD4680BC704710E000E01E
:104A700018E000E018010020D34D621014E000E0BF
:104A800080B485B000AFEFF30583FB60FB680F2BAC
:104A900014D9164AFB6813441B78FB72144B1B781D
:104AA000FA7A9A420AD24FF0500383F31188BFF387
:104AB0006F8FBFF34F8F7B6000BFFEE70D4B1B680E
:104AC00003F4E0620C4B1B689A420AD94FF0500382
:104AD00083F31188BFF36F8FBFF34F8F3B6000BF2D
:104AE000FEE700BF1437BD4680BC7047F0E300E02E
:104AF000586200200CED00E05C62002080B58AB0B6
:104B000000AF78600023FB6101F032F8584B1B685E
:104B1000002B01D100F010F9564B1A687B68134046
:104B2000002B40F08E807B68002B1DD008227B6814
:104B300013447B607B6803F00703002B14D07B6871
:104B400023F0070308337B607B6803F00703002B27
:104B50000AD04FF0500383F31188BFF36F8FBFF378
:104B60004F8F7B6100BFFEE77B68002B69D0424B13
:104B70001B687A689A4264D8404B3B623F4B1B6883
:104B80007B6204E07B6A3B627B6A1B687B627B6AB8
:104B90005B687A689A4203D97B6A1B68002BF1D163
:104BA000334B1B687A6A9A424BD03B6A1B680822D7
:104BB0001344FB617B6A1A683B6A1A607B6A5A6815
:104BC0007B68D21A08235B009A421FD97A6A7B68F5
:104BD0001344BB61BB6903F00703002B0AD04FF0FD
:104BE000500383F31188BFF36F8FBFF34F8F3B6187
:104BF00000BFFEE77B6A5A687B68D21ABB695A60BD
:104C00007B6A7A685A60B86900F0F8F81A4B1A683B
:104C10007B6A5B68D31A184A1360174B1A68184BE3
:104C20001B689A4203D2144B1B68154A13607B6AB7
:104C30005A68104B1B681A437B6A5A607B6A0022D1
:104C40001A6000F0A3FFFB6903F00703002B0AD0F2
:104C50004FF0500383F31188BFF36F8FBFF34F8F73
:104C6000FB6000BFFEE7FB6918462837BD4680BDE4
:104C7000689E0020749E00206C9E0020609E002094
:104C8000709E002080B586B000AF78607B687B6145
:104C90007B68002B48D008235B427A6913447B6110
:104CA0007B693B613B695A68214B1B681340002BB1
:104CB0000AD14FF0500383F31188BFF36F8FBFF316
:104CC0004F8FFB6000BFFEE73B691B68002B0AD0DB
:104CD0004FF0500383F31188BFF36F8FBFF34F8FF3
:104CE000BB6000BFFEE73B695A68114B1B6813406D
:104CF000002B19D03B691B68002B15D13B695A6802
:104D00000B4B1B68DB431A403B695A6000F030FFD5
:104D10003B695A68074B1B681344064A136038699D
:104D200000F06CF800F032FF00BF1837BD4680BDC0
:104D3000749E00206C9E002080B485B000AF4FF4BC
:104D40007053BB60274BFB60FB6803F00703002B2D
:104D50000CD0FB680733FB60FB6823F00703FB60A4
:104D6000BA68FB68D31A1F4A1344BB60FB687B60B8
:104D70001D4A7B6813601C4B00225A607B68BA682E
:104D80001344FB600822FB689B1AFB60FB6823F05E
:104D90000703FB60FB68154A1360144B1B68002275
:104DA0005A60124B1B6800221A607B683B603B68AC
:104DB000FA68D21A3B685A600C4B1A683B681A6052
:104DC0003B685B680A4A13603B685B68094A13608A
:104DD000094B4FF000421A6000BF1437BD4680BC3B
:104DE000704700BF60620020609E0020689E002027
:104DF000709E00206C9E0020749E002080B485B0C0
:104E000000AF7860274BFB6002E0FB681B68FB602B
:104E1000FB681B687A689A42F7D8FB68BB60FB683E
:104E20005B68BA6813447A689A4208D1FB685A688A
:104E30007B685B681A44FB685A60FB687B607B6830
:104E4000BB607B685B68BA681A44FB681B689A425F
:104E500018D1FB681A68144B1B689A420DD07B6806
:104E60005A68FB681B685B681A447B685A60FB6879
:104E70001B681A687B681A6008E00B4B1A687B682D
:104E80001A6003E0FB681A687B681A60FA687B683E
:104E90009A4202D0FB687A681A6000BF1437BD4698
:104EA00080BC7047609E0020689E002080B584B062
:104EB00000AF786039607B68FB60FB68002B0AD12B
:104EC0004FF0500383F31188BFF36F8FBFF34F8F01
:104ED000BB6000BFFEE7FFF711FDFB681A68FB68C7
:104EE000DB6BF968096C01FB03F31A44FB685A6039
:104EF000FB6800229A63FB681A68FB689A60FB688B
:104F00001A68FB68DB6B013BF968096C01FB03F372
:104F10001A44FB68DA60FB68FF2283F84420FB68D0
:104F2000FF2283F845203B68002B14D1FB681B69E6
:104F3000002B1AD0FB681033184601F045F80346E1
:104F4000002B12D00C4B4FF080521A60BFF34F8FE2
:104F5000BFF36F8F09E0FB6810331846FFF72AFB99
:104F6000FB6824331846FFF725FBFFF7F7FC012306
:104F700018461037BD4680BD04ED00E080B58AB00C
:104F800002AFF860B9601346FB71FB68002B0AD1D1
:104F90004FF0500383F31188BFF36F8FBFF34F8F30
:104FA0003B6100BFFEE7BB68002B02D10023FB6121
:104FB00004E0FB68BA6802FB03F3FB61FB69503352
:104FC0001846FFF79BFDB861BB69002B0BD0BB698E
:104FD00050337B61FA79BB69009313467A69B968EB
:104FE000F86800F005F8BB6918462037BD4680BD5B
:104FF00080B584B000AFF860B9607A60FB70BB68C0
:10500000002B03D1BB69BA691A6002E0BB697A68F8
:105010001A60BB69FA68DA63BB69BA681A6401216D
:10502000B869FFF743FFBB69FA7883F84C2000BFEB
:105030001037BD4680BD000080B58EB000AFF8606F
:10504000B9607A603B6000237B63FB683B633B6B2A
:10505000002B0AD14FF0500383F31188BFF36F8FF9
:10506000BFF34F8FBB6200BFFEE7BB68002B03D1CD
:105070003B6B1B6C002B01D1012300E00023002BB4
:105080000AD14FF0500383F31188BFF36F8FBFF342
:105090004F8F7B6200BFFEE73B68022B03D13B6B67
:1050A000DB6B012B01D1012300E00023002B0AD18F
:1050B0004FF0500383F31188BFF36F8FBFF34F8F0F
:1050C0003B6200BFFEE701F021F90346002B02D14D
:1050D0007B68002B01D1012300E00023002B0AD1C3
:1050E0004FF0500383F31188BFF36F8FBFF34F8FDF
:1050F000FB6100BFFEE7FFF701FC3B6B9A6B3B6B6C
:10510000DB6B9A4202D33B68022B29D13A68B9681B
:10511000386B00F007FAF8623B6B5B6A002B10D02B
:105120003B6B2433184600F04FFF0346002B13D08F
:105130003F4B4FF080521A60BFF34F8FBFF36F8F1A
:105140000AE0FB6A002B07D0394B4FF080521A60FF
:10515000BFF34F8FBFF36F8FFFF700FC012363E0B6
:105160007B68002B03D1FFF7F9FB00235CE07B6B2E
:10517000002B06D107F11403184600F089FF012324
:105180007B63FFF7EBFB00F0F3FCFFF7B7FB3B6B38
:1051900093F844305BB2B3F1FF3F03D13B6B002285
:1051A00083F844203B6B93F845305BB2B3F1FF3F8B
:1051B00003D13B6B002283F84520FFF7CFFB3A1D5C
:1051C00007F114031146184600F078FF0346002B40
:1051D00024D1386B00F09EFA0346002B18D03B6BAD
:1051E00010337A681146184600F09EFE386B00F0C6
:1051F00029FA00F0CBFC0346002B7FF47CAF0C4B6C
:105200004FF080521A60BFF34F8FBFF36F8F72E77A
:10521000386B00F017FA00F0B9FC6CE7386B00F05F
:1052200011FA00F0B3FC002318463837BD4680BDA4
:1052300004ED00E080B58EB000AFF860B9607A6030
:105240003B60FB683B633B6B002B0AD14FF0500384
:1052500083F31188BFF36F8FBFF34F8F7B6200BF63
:10526000FEE7BB68002B03D13B6B1B6C002B01D10D
:10527000012300E00023002B0AD14FF0500383F3F9
:105280001188BFF36F8FBFF34F8F3B6200BFFEE704
:105290003B68022B03D13B6BDB6B012B01D101235C
:1052A00000E00023002B0AD14FF0500383F3118854
:1052B000BFF36F8FBFF34F8FFB6100BFFEE7FFF7B8
:1052C000DFFBEFF311824FF0500383F31188BFF33C
:1052D0006F8FBFF34F8FBA617B61BB69FB623B6B22
:1052E0009A6B3B6BDB6B9A4202D33B68022B2CD14F
:1052F0003B6B93F8453087F82B303A68B968386BC8
:1053000000F010F997F92B30B3F1FF3F12D13B6B4E
:105310005B6A002B16D03B6B2433184600F054FE1A
:105320000346002B0ED07B68002B0BD07B6801223C
:105330001A6007E097F82B300133DBB25AB23B6BAF
:1053400083F8452001237B6301E000237B63FB6A34
:105350003B613B6983F3118800BF7B6B184638378C
:10536000BD4680BD80B58CB000AFF860B9607A6092
:105370000023FB62FB68BB62BB6A002B0AD14FF0C3
:10538000500383F31188BFF36F8FBFF34F8F3B62DE
:1053900000BFFEE7BB68002B03D1BB6A1B6C002B70
:1053A00001D1012300E00023002B0AD14FF050036C
:1053B00083F31188BFF36F8FBFF34F8FFB6100BF83
:1053C000FEE700F0A3FF0346002B02D17B68002B11
:1053D00001D1012300E00023002B0AD14FF050033C
:1053E00083F31188BFF36F8FBFF34F8FBB6100BF93
:1053F000FEE7FFF783FABB6A9B6B7B627B6A002B3D
:105400001FD0B968B86A00F0F7F87B6A5A1EBB6A09
:105410009A63BB6A1B69002B0FD0BB6A1033184616
:1054200000F0D2FD0346002B07D03D4B4FF08052D9
:105430001A60BFF34F8FBFF36F8FFFF78FFA01230F
:1054400069E07B68002B03D1FFF788FA002362E054
:10545000FB6A002B06D107F11003184600F018FE76
:105460000123FB62FFF77AFA00F082FBFFF746FAAE
:10547000BB6A93F844305BB2B3F1FF3F03D1BB6A20
:10548000002283F84420BB6A93F845305BB2B3F145
:10549000FF3F03D1BB6A002283F84520FFF75EFA85
:1054A0003A1D07F110031146184600F007FE0346A7
:1054B000002B23D1B86A00F017F90346002B17D050
:1054C000BB6A24337A681146184600F02DFDB86A8D
:1054D00000F0B8F800F05AFB0346002B89D1104BBE
:1054E0004FF080521A60BFF34F8FBFF36F8F80E78A
:1054F000B86A00F0A7F800F049FB7AE7B86A00F054
:10550000A1F800F043FBB86A00F0EEF80346002B68
:105510003FF46FAF002318463037BD4680BD00BF53
:1055200004ED00E080B586B000AFF860B9607A6045
:1055300000237B61FB689B6B3B61FB681B6C002B52
:105540000DD1FB681B68002B4DD1FB685B681846CA
:1055500000F0FAFE7861FB6800225A6043E07B6845
:10556000002B19D1FB689868FB681B6C1A46B96858
:105570000BF012F9FB689A68FB681B6C1A44FB6815
:105580009A60FB689A68FB685B689A422BD3FB6859
:105590001A68FB689A6026E0FB68D868FB681B6C99
:1055A0001A46B9680BF0F8F8FB68DA68FB681B6C00
:1055B0005B421A44FB68DA60FB68DA68FB681B68C8
:1055C0009A4207D2FB685A68FB681B6C5B421A441C
:1055D000FB68DA607B68022B05D13B69002B02D0A7
:1055E0003B69013B3B613B695A1CFB689A637B69E1
:1055F00018461837BD4680BD80B582B000AF7860D0
:1056000039607B681B6C002B18D07B68DA687B687C
:105610001B6C1A447B68DA607B68DA687B685B68BD
:105620009A4203D37B681A687B68DA607B68D96822
:105630007B681B6C1A4638680BF0AEF800BF083761
:10564000BD4680BD80B584B000AF7860FFF756F9E5
:105650007B6893F84530FB7311E07B685B6A002B35
:1056600012D07B682433184600F0AEFC0346002BB2
:1056700001D000F085FDFB7B013BDBB2FB7397F9AA
:105680000F30002BE9DC00E000BF7B68FF2283F8CD
:105690004520FFF763F9FFF731F97B6893F8443051
:1056A000BB7311E07B681B69002B12D07B68103341
:1056B000184600F089FC0346002B01D000F060FD85
:1056C000BB7B013BDBB2BB7397F90E30002BE9DCEF
:1056D00000E000BF7B68FF2283F84420FFF73EF91B
:1056E00000BF1037BD4680BD80B584B000AF786084
:1056F000FFF704F97B689B6B002B02D10123FB6051
:1057000001E00023FB60FFF729F9FB68184610371A
:10571000BD4680BD80B584B000AF7860FFF7EEF87D
:105720007B689A6B7B68DB6B9A4202D10123FB603A
:1057300001E00023FB60FFF711F9FB681846103702
:10574000BD4680BD80B485B000AF7860396000236D
:10575000FB6014E00E4AFB6852F83330002B0BD18B
:105760000B49FB683A6841F83320094AFB68DB00C3
:1057700013447A685A6006E0FB680133FB60FB68FB
:10578000072BE7D900BF00BF1437BD4680BC704768
:1057900030A2002080B586B000AFF860B9607A60B2
:1057A000FB687B61FFF7AAF87B6993F844305BB232
:1057B000B3F1FF3F03D17B69002283F844207B696A
:1057C00093F845305BB2B3F1FF3F03D17B69002210
:1057D00083F84520FFF7C2F87B699B6B002B06D14D
:1057E0007B6924337A68B968184600F0C1FB786990
:1057F000FFF728FF00BF1837BD4680BD80B58CB0CD
:1058000004AFF860B9603B601346FB80FB889B00E7
:105810001846FFF773F978617B69002B0ED05C2086
:10582000FFF76CF9F861FB69002B03D0FB697A691B
:105830001A6305E07869FFF725FA01E00023FB61B0
:10584000FB69002B13D0FA8800230393FB690293B2
:10585000FB6A0193BB6A00933B68B968F86800F083
:105860000EF8F86900F092F80123BB6102E04FF0F6
:10587000FF33BB61BB6918462037BD4680BD80B58C
:1058800088B000AFF860B9607A603B603B6B186B22
:105890007B689B001A46A5210AF08CFF3B6B1A6BB4
:1058A0007B6803F18043013B9B001344BB61BB69F0
:1058B00023F00703BB61BB6903F00703002B0AD089
:1058C0004FF0500383F31188BFF36F8FBFF34F8FF7
:1058D0007B6100BFFEE70023FB6112E0BA68FB6951
:1058E000134419783A6BFB69134434330A461A702F
:1058F000BA68FB6913441B78002B06D0FB6901339F
:10590000FB61FB690F2BE9D900E000BF3B6B002274
:1059100083F84320BB6A062B01D90623BB623B6B8D
:10592000BA6ADA623B6BBA6ADA643B6B00221A65C8
:105930003B6B04331846FEF75CFE3B6B183318468E
:10594000FEF757FE3B6B3A6B1A61BB6AC3F1070265
:105950003B6B9A613B6B3A6B5A623B6B00225A6518
:105960003B6B002283F858203A68F968B869FEF763
:10597000D1FE02463B6B1A60FB6A002B02D0FB6A29
:105980003A6B1A6000BF2037BD4680BD80B582B03B
:1059900000AF7860FEF7B2FF2D4B1B6801332C4A35
:1059A00013602C4B1B68002B09D12A4A7B681360BB
:1059B000274B1B68012B10D100F006FC0DE0264B95
:1059C0001B68002B09D1234B1B68DA6A7B68DB6AF2
:1059D0009A4202D81F4A7B681360204B1B68013330
:1059E0001E4A13601D4B1A687B685A647B68DA6A2A
:1059F0001B4B1B689A4203D97B68DB6A184A136009
:105A00007B68DA6A13469B0013449B00154A1A44CC
:105A10007B68043319461046FEF7F7FDFEF79EFF3C
:105A20000D4B1B68002B0ED00A4B1B68DA6A7B6893
:105A3000DB6A9A4207D20C4B4FF080521A60BFF3D8
:105A40004F8FBFF36F8F00BF0837BD4680BD00BFCB
:105A5000789F0020789E0020849F0020949F002043
:105A6000809F00207C9E002004ED00E080B584B083
:105A700000AF78600023FB607B68002B17D0134BCE
:105A80001B68002B0AD04FF0500383F31188BFF33B
:105A90006F8FBFF34F8FBB6000BFFEE700F068F869
:105AA0000021786800F0BEFC00F070F8F860FB6838
:105AB000002B07D1064B4FF080521A60BFF34F8F77
:105AC000BFF36F8F00BF1037BD4680BDA09F002081
:105AD00004ED00E080B586B002AF1F4B01930023B8
